:020000040800F2
:1000000000000320A5330008993200089B32000845
:100010009D3200089F320008A13200080000000055
:10002000000000000000000000000000A3320008F3
:10003000A532000800000000A7320008A93200081D
:10004000F5330008F5330008F5330008F5330008F0
:10005000F5330008F5330008F5330008F5330008E0
:10006000F5330008F5330008F5330008F5330008D0
:10007000F5330008F5330008F5330008F5330008C0
:10008000F5330008F5330008F5330008F5330008B0
:10009000F5330008F5330008F5330008F5330008A0
:1000A000F5330008F5330008F5330008F533000890
:1000B000F5330008F5330008F5330008F533000880
:1000C000F5330008F5330008F5330008F533000870
:1000D000F5330008F5330008F5330008F533000860
:1000E000AD320008F5330008F5330008F533000899
:1000F000F5330008F5330008F5330008F533000840
:10010000F5330008F5330008F5330008F53300082F
:10011000F5330008F5330008C9320008F53300084C
:10012000F5330008F5330008F5330008F53300080F
:10013000F5330008F5330008F5330008F5330008FF
:10014000F5330008F5330008F5330008F5330008EF
:10015000F5330008F5330008F5330008F5330008DF
:10016000F5330008F5330008F5330008F5330008CF
:10017000F5330008F5330008F533000800000000EF
:10018000F5330008F5330008F5330008F5330008AF
:10019000F5330008F5330008F5330008F53300089F
:0C01A000F5330008F5330008F5330008C3
:1001B00010B5054C237833B9044B13B10448AFF3A1
:1001C00000800123237010BD880000200000000083
:1001D0001443000808B5034B1BB103490348AFF3B0
:1001E000008008BD000000008C00002014430008BF
:1001F00001F0FF01102A2BDB10F0070F08D010F8D8
:10020000013B013A8B422DD010F0070F42B3F6D1DB
:10021000F0B441EA012141EA014122F007047FF0F4
:1002200000070023F0E80256083C85EA010586EA4B
:10023000010685FA47F5A3FA87F586FA47F6A5FA87
:1002400087F68EB9EED1F0BC01F0FF0102F0070293
:1002500032B110F8013B013A83EA010313B1F8D13E
:100260000020704701387047002D06BF354603381F
:10027000073815F0010F07D1013015F4807F02BF58
:10028000013015F4C03F0130F0BC0138704700BFA9
:1002900081F0004102E000BF83F0004330B54FEA37
:1002A00041044FEA430594EA050F08BF90EA020FA4
:1002B0001FBF54EA000C55EA020C7FEA645C7FEA37
:1002C000655C00F0E2804FEA5454D4EB5555B8BF5A
:1002D0006D420CDD2C4480EA020281EA030382EACB
:1002E000000083EA010180EA020281EA0303362D5D
:1002F00088BF30BD11F0004F4FEA01314FF4801C30
:100300004CEA113102D0404261EB410113F0004F41
:100310004FEA03334CEA133302D0524263EB4303F8
:1003200094EA050F00F0A780A4F10104D5F1200E96
:100330000DDB02FA0EFC22FA05F2801841F10001F1
:1003400003FA0EF2801843FA05F359410EE0A5F1C5
:1003500020050EF1200E012A03FA0EFC28BF4CF0F6
:10036000020C43FA05F3C01851EBE37101F00045AC
:1003700007D54FF0000EDCF1000C7EEB00006EEBB9
:100380000101B1F5801F1BD3B1F5001F0CD3490843
:100390005FEA30004FEA3C0C04F101044FEA44529A
:1003A00012F5800F80F09A80BCF1004F08BF5FEA21
:1003B000500C50F1000041EB045141EA050130BD01
:1003C0005FEA4C0C404141EB010111F4801FA4F1A4
:1003D0000104E9D191F0000F04BF01460020B1FAF9
:1003E00081F308BF2033A3F10B03B3F120020CDA31
:1003F0000C3208DD02F1140CC2F10C0201FA0CF00F
:1004000021FA02F10CE002F11402D8BFC2F1200C73
:1004100001FA02F120FA0CFCDCBF41EA0C01904029
:10042000E41AA2BF01EB0451294330BD6FEA040472
:100430001F3C1CDA0C340EDC04F11404C4F120025D
:1004400020FA04F001FA02F340EA030021FA04F36F
:1004500045EA030130BDC4F10C04C4F1200220FAC6
:1004600002F001FA04F340EA0300294630BD21FA04
:1004700004F0294630BD94F0000F83F4801306BFCA
:1004800081F480110134013D4EE77FEA645C18BFBE
:100490007FEA655C29D094EA050F08BF90EA020F55
:1004A00005D054EA000C04BF1946104630BD91EA4D
:1004B000030F1EBF0021002030BD5FEA545C05D150
:1004C0004000494128BF41F0004130BD14F580048F
:1004D0003CBF01F5801130BD01F0004545F0FE4103
:1004E00041F470014FF0000030BD7FEA645C1ABF38
:1004F000194610467FEA655C1CBF0B46024650EA6F
:10050000013406BF52EA033591EA030F41F400219A
:1005100030BD00BF90F0000F04BF0021704730B520
:100520004FF4806404F132044FF000054FF00001F5
:1005300050E700BF90F0000F04BF0021704730B5B6
:100540004FF4806404F1320410F0004548BF40428B
:100550004FF000013EE700BF42004FEAE2014FEAE0
:1005600031014FEA02701FBF12F07F4393F07F4FBB
:1005700081F06051704792F0000F14BF93F07F4FED
:10058000704730B54FF4607401F0004521F0004130
:1005900020E700BF50EA010208BF704730B54FF0B6
:1005A00000050AE050EA010208BF704730B511F0BB
:1005B000004502D5404261EB41014FF4806404F1F3
:1005C00032045FEA915C3FF4DCAE4FF003025FEA75
:1005D000DC0C18BF03325FEADC0C18BF033202EBFD
:1005E000DC02C2F1200300FA03FC20FA02F001FA57
:1005F00003FE40EA0E0021FA02F11444C1E600BFF6
:1006000070B54FF0FF0C4CF4E06C1CEA11541DBFA8
:100610001CEA135594EA0C0F95EA0C0F00F0DEF873
:100620002C4481EA030621EA4C5123EA4C5350EA58
:10063000013518BF52EA033541F4801143F48013A9
:1006400038D0A0FB02CE4FF00005E1FB02E506F03A
:100650000042E0FB03E54FF00006E1FB03569CF08F
:10066000000F18BF4EF0010EA4F1FF04B6F5007F95
:1006700064F5407404D25FEA4E0E6D4146EB060607
:1006800042EAC62141EA55514FEAC52040EA5E5090
:100690004FEACE2EB4F1FD0C88BFBCF5E06F1ED83A
:1006A000BEF1004F08BF5FEA500E50F1000041EB71
:1006B000045170BD06F0004646EA010140EA02001E
:1006C00081EA0301B4EB5C04C2BFD4EB0C0541EA40
:1006D000045170BD41F480114FF0000E013C00F355
:1006E000AB8014F1360FDEBF002001F0004170BD79
:1006F000C4F10004203C35DA0C341BDC04F1140492
:10070000C4F1200500FA05F320FA04F001FA05F21D
:1007100040EA020001F0004221F0004110EBD370EA
:1007200021FA04F642EB06015EEA430E08BF20EA16
:10073000D37070BDC4F10C04C4F1200500FA04F3B9
:1007400020FA05F001FA04F240EA020001F000414B
:1007500010EBD37041F100015EEA430E08BF20EABE
:10076000D37070BDC4F1200500FA05F24EEA020E06
:1007700020FA04F301FA05F243EA020321FA04F035
:1007800001F0004121FA04F220EA020000EBD370EC
:100790005EEA430E08BF20EAD37070BD94F0000FEC
:1007A0000FD101F00046400041EB010111F4801F20
:1007B00008BF013CF7D041EA060195F0000F18BFD1
:1007C000704703F00046520043EB030313F4801F0D
:1007D00008BF013DF7D043EA0603704794EA0C0FC7
:1007E0000CEA135518BF95EA0C0F0CD050EA4106DD
:1007F00018BF52EA4306D1D181EA030101F000415A
:100800004FF0000070BD50EA410606BF1046194681
:1008100052EA430619D094EA0C0F02D150EA01368D
:1008200013D195EA0C0F05D152EA03361CBF1046CE
:1008300019460AD181EA030101F0004141F0FE416D
:1008400041F470014FF0000070BD41F0FE4141F4F1
:10085000780170BD70B54FF0FF0C4CF4E06C1CEAF1
:1008600011541DBF1CEA135594EA0C0F95EA0C0FA6
:1008700000F0A7F8A4EB050481EA030E52EA033561
:100880004FEA013100F088804FEA03334FF0805582
:1008900045EA131343EA12634FEA022245EA1115AF
:1008A00045EA10654FEA00260EF000419D4208BF60
:1008B000964244F1FD0404F5407402D25B084FEA0D
:1008C0003202B61A65EB03055B084FEA32024FF4B9
:1008D00080104FF4002CB6EB020E75EB030E22BF16
:1008E000B61A754640EA0C005B084FEA3202B6EBD6
:1008F000020E75EB030E22BFB61A754640EA5C0085
:100900005B084FEA3202B6EB020E75EB030E22BF14
:10091000B61A754640EA9C005B084FEA3202B6EB15
:10092000020E75EB030E22BFB61A754640EADC00D4
:1009300055EA060E18D04FEA051545EA16754FEA36
:1009400006164FEAC30343EA52734FEAC2025FEA54
:100950001C1CC0D111F4801F0BD141EA00014FF0E3
:1009600000004FF0004CB6E711F4801F04BF0143B4
:100970000020B4F1FD0C88BFBCF5E06F3FF6AFAED0
:10098000B5EB030C04BFB6EB020C5FEA500C50F160
:10099000000041EB045170BD0EF0004E4EEA1131E3
:1009A00014EB5C04C2BFD4EB0C0541EA045170BDEA
:1009B00041F480114FF0000E013C90E645EA060E2E
:1009C0008DE60CEA135594EA0C0F08BF95EA0C0F5C
:1009D0003FF43BAF94EA0C0F0AD150EA01347FF4A4
:1009E00034AF95EA0C0F7FF425AF104619462CE77B
:1009F00095EA0C0F06D152EA03353FF4FDAE1046DE
:100A0000194622E750EA410618BF52EA43067FF42E
:100A1000C5AE50EA41047FF40DAF52EA43057FF4BE
:100A2000EBAE12E74FEA410212F5001215D211D5D2
:100A30006FF47873B3EB625212D94FEAC12343F0DB
:100A4000004343EA505311F0004F23FA02F018BF5D
:100A5000404270474FF00000704750EA013005D126
:100A600011F0004008BF6FF0004070474FF00000E9
:100A7000704700BF53B94AB9002908BF00281CBFFE
:100A80004FF0FF314FF0FF3000F07AB9ADF1080CB4
:100A90006DE904CE00F006F8DDF804E0DDE902239C
:100AA00004B070472DE9F0478C460D460446089E79
:100AB000002B51D18A4217466DD9B2FA82FEBEF19F
:100AC000000F0BD0CEF1200C01FA0EF520FA0CFC31
:100AD00002FA0EF74CEA050C00FA0EF44FEA174A38
:100AE000250CBCFBFAF81FFA87F90AFB18CC45EA7B
:100AF0000C4508FB09F3AB420AD9ED1908F1FF32A6
:100B000080F02381AB4240F22081A8F102083D44ED
:100B1000ED1AA4B2B5FBFAF00AFB105544EA0544FD
:100B200000FB09F9A14509D9E41900F1FF3380F070
:100B30000A81A14540F2078102383C44A4EB090434
:100B400040EA08400021002E61D024FA0EF4002370
:100B500034607360BDE8F0878B4207D9002E54D013
:100B6000002186E821000846BDE8F087B3FA83F14A
:100B7000002940F08E80AB4202D3824200F2FA801C
:100B8000841A65EB03050120AC46002E3FD086E8B1
:100B90001010BDE8F08712B90127B7FBF2F7B7FADA
:100BA00087FEBEF1000F34D1EB1B3A0C1FFA87FC15
:100BB0000121B3FBF2F8250C02FB183345EA03458B
:100BC0000CFB08F3AB4207D9ED1908F1FF3002D254
:100BD000AB4200F2D1808046ED1AA3B2B5FBF2F031
:100BE00002FB105543EA05440CFB00FCA44507D961
:100BF000E41900F1FF3302D2A44500F2B880184690
:100C0000A4EB0C0440EA08409DE731463046BDE8BD
:100C1000F087CEF1200405FA0EF307FA0EF720FA5A
:100C200004F83A0C25FA04F448EA0308B4FBF2F19C
:100C30004FEA184502FB11441FFA87FC45EA0445B8
:100C400001FB0CF3AB4200FA0EF409D9ED1901F1E6
:100C5000FF3080F08A80AB4240F2878002393D4409
:100C6000EB1A1FFA88F5B3FBF2F002FB103345EAEA
:100C7000034500FB0CF3AB4207D9ED1900F1FF3837
:100C80006FD2AB426DD902383D44EB1A40EA0141C4
:100C90008FE7C1F1200722FA07F88B4005FA01F42B
:100CA00048EA030320FA07FE4FEA134CFD404EEAE0
:100CB000040EB5FBFCF94FEA1E440CFB19551FFA54
:100CC00083F844EA054509FB08F4AC4202FA01F254
:100CD00000FA01FA08D9ED1809F1FF3043D2AC420D
:100CE00041D9A9F102091D442D1B1FFA8EFEB5FB47
:100CF000FCF00CFB10554EEA054400FB08F8A0453B
:100D000007D9E41800F1FF3529D2A04527D90238C8
:100D10001C4440EA0940A4EB0804A0FB02894C45AE
:100D2000C6464D4615D312D056B1BAEB0E0364EB4E
:100D3000050404FA07F7CB401F43CC4037607460CA
:100D40000021BDE8F0871846F8E69046E0E6C24587
:100D5000EAD2B8EB020E69EB03050138E4E7284656
:100D6000D7E7404691E78146BEE7014678E702387B
:100D70003C4445E7084608E7A8F102083D442BE754
:100D8000704700BF38B50E4A0E4B054618784FF431
:100D90007A73B3FBF0F31068B0FBF3F000F0AAF83D
:100DA000044658B90F2D09D8024629464FF0FF30A6
:100DB00000F05EF8044B20461D6038BD012038BDB0
:100DC00020000020000000200400002008B50B4B8C
:100DD0001A6842F400721A601A6842F480621A605B
:100DE0001A6842F480721A60032000F02FF8002085
:100DF000FFF7C8FF02F052F8002008BD003C024097
:100E0000034A044B11681B780B441360704700BF02
:100E1000E400002000000020014B1868704700BF6C
:100E2000E400002038B50446FFF7F6FF631C1CBF42
:100E3000054B1B78054618BFE418FFF7EDFF401B74
:100E40008442FAD838BD00BF00000020074AD368AA
:100E500023F4E0631B041B0C43F0BF63000243F464
:100E6000003300F4E0600343D360704700ED00E01E
:100E7000174B30B5DC68C4F30224C4F10703251D09
:100E8000042B28BF0423062D4FF0010505FA03F3B8
:100E900003F1FF338CBF033C00241940A14005FA45
:100EA00004F4013C2240002842EA01024FEA021207
:100EB000ADBF00F1604000F00F00064B00F561404F
:100EC000B5BFD2B2D2B21A5480F8002330BD00BFF1
:100ED00000ED00E014ED00E0002808DB42090123EA
:100EE00000F01F0003FA00F0014B43F822007047A6
:100EF00000E100E00138B0F1807F0AD2064B074ADA
:100F00005860F02182F823100020072298601A60B0
:100F100070470120704700BF10E000E000ED00E0E6
:100F2000002809DB4309012200F01F0002FA00F04B
:100F30006033024A42F82300704700BF00E100E03E
:100F400070B5044629B14FF40063C3604FF4804389
:100F50008360E3692268E0681568002BA36843EAB0
:100F60000003304843F4007300EA05000CBF4FF45F
:100F70008061002103430B43136001201568FFF7D4
:100F800051FF236840221D6001205A605D68FFF711
:100F900049FF23685D6000259D60DD609A6922F04D
:100FA000BE021204120C42F080029A6101209E6976
:100FB000FFF738FF236801209E61DD61DD69FFF7DF
:100FC00031FF2268184BD56141F2180501205159B3
:100FD0000B4043F0087343F0040353515659FFF795
:100FE00021FF2368114A5E5103F5805301201A60E6
:100FF0001D68FFF717FF226802F580531D60A36983
:10100000012B07D141F21C01535843F4803343F0C4
:10101000400353506369064A998811601A68054B6A
:101020001A6070BD0F8120FF233FDEF88020C102CF
:101030004080024044800240F8B590F84430822B52
:101040000546164630D00268822380F84430136982
:10105000890101F4F86403F01C012143048AE402CD
:10106000A4B20C4344F001041461FFF7D5FE074617
:1010700014F0010007D12B685B699BB23360012338
:1010800085F84430F8BDFFF7C7FEC01BB0F5803FC0
:1010900007D3012385F84430002385F84530032029
:1010A000F8BD2B681C69E3E70220F8BD90F84430D6
:1010B000422B70B505462ED0422380F84430036899
:1010C0008C01186904F4F86444F0030400F01C0077
:1010D00020432C8AE402A4B2044392B25A611C61F8
:1010E000FFF79AFE064614F0010003D1012385F8AC
:1010F000443070BDFFF790FE801BB0F5803F07D3F2
:10110000012385F84430002385F84530032070BD65
:101110002B681C69E7E7022070BD0000F7B50023CB
:1011200000930446002800F0DE8090F8443003F07D
:10113000FF021BB980F8452001F0CCFE002301938B
:101140006A4B5A6C42F480425A645B6C03F48043ED
:101150000193019B664B5A6822F400025A605A6858
:10116000216A0A435A60236803F580531A6842F0E3
:1011700001021A60FFF750FE0546236803F580520E
:101180001268D0071DD41D6900F094FC594B5A4ACF
:101190000344934225F01C0522D845F00805236836
:1011A0004FF400421D6100212046FFF77FFF0546F6
:1011B00068B3012120460125FFF7C2FE84F84450A0
:1011C0000BE0FFF729FE401BB0F5FA7FD5D90325C8
:1011D000002384F8445084F84530284603B0F0BD1D
:1011E000464B474A0344934202D845F00C05D6E7E4
:1011F000444B454A03449342D1D9444B444A0344A7
:10120000934294BF45F0040545F01005C7E7FF2061
:10121000FFF708FE6368002B53D0FFF7FDFD41F296
:10122000883706466A4601212046FFF705FFFFF78B
:10123000F3FD801BB8420BD901212046FFF780FE49
:10124000012384F84430002384F845300325C4E7A3
:10125000009B5907E6D54FF4805200212046FFF746
:1012600025FF0028A5D1FFF7D7FD41F288370646B4
:101270006A4601212046FFF7DFFEFFF7CDFD801B08
:10128000B842D9D8009B9A06F2D56A461F2120465B
:10129000FFF7D2FE00288CD1009B13F0100218BF7C
:1012A0004FF400625B074CBF00234FF48043E260C1
:1012B000A36000212046FFF743FE012384F8443059
:1012C0008BE7A368E2685B0843EAD20292B2294640
:1012D0002046FFF7EBFE00287FF46BAF40F6FF706F
:1012E000FFF7A0FDE5E7012577E700BF00380240E2
:1012F0000038014000D3CEFEBFE1E40040F1E9FD3B
:101300003F787D0100796CFCFF596202001F0AFAE8
:101310007FF0FA022DE9F04F85B00B68DFF8C48149
:101320006E4ADFF8C491019300234FF0010E019C37
:101330000EFA03FE0EEA0406B64540F0B6804C688D
:1013400024F01007022F16D14FEAD30A00EB8A0AC5
:1013500003F0070BDAF820504FEA8B0B4FF00F0C1D
:101360000CFA0BFC25EA0C0C0D6905FA0BF545EAA5
:101370000C05CAF820504FEA430A0325D0F800B004
:1013800005FA0AF5ED4304F0030C0BEA050B0CFA21
:101390000AFC013F4CEA0B0C012FC0F800C011D829
:1013A000876807EA050BCF6807FA0AFC4CEA0B07C7
:1013B0008760476827EA0E0EC4F300179F4047EA8C
:1013C0000E074760C7683D408F6807FA0AF73D433C
:1013D000C560E50069D54FF0000BCDF80CB0D8F82A
:1013E00044703F4D47F48047C8F84470D8F84470C3
:1013F00007F480470397039F23F0030707F1804713
:1014000007F59C3703F0030CD7F808A04FEA8C0CC3
:101410004FF00F0E0EFA0CFEA8422AEA0E0E4BD029
:1014200005F58065A84249D005F58065A84247D0FA
:1014300005F58065A84245D005F58065A84243D0F2
:10144000484543D005F50065A84241D005F58065C3
:10145000A8423FD005F58065A8423DD005F58065DE
:10146000A84214BF0A25092505FA0CF545EA0E0520
:10147000BD601568F74314F4803F0CBF3D40354311
:101480001560556814F4003F0CBF3D40354355606E
:10149000956814F4801F0CBF3D4035439560D568B6
:1014A000A40254BF3D403543D5600133102B7FF477
:1014B0003CAF05B0BDE8F08F5D46D5E70125D3E729
:1014C0000225D1E70325CFE70425CDE70525CBE7A6
:1014D0000625C9E70725C7E70825C5E7003C014001
:1014E0000000024000380240001402400AB181614D
:1014F00070470904FBE7000008B5044B5969014235
:1015000002D0586101F0C8FC08BD00BF003C01409A
:10151000F0B504468BB060B390F8BD33056803F0B6
:10152000FF021BB980F8BC2301F074FE032384F88A
:10153000BD33EB6B254613F4807355F8100B08BFD1
:10154000236101F05FF80FCD6E460FC60FCD0FC6B9
:1015500095E8030086E803002546271D97E80E005E
:1015600055F8100B01F00EF8064620B1022384F85E
:10157000BD33012550E00146206801F049F83046AE
:10158000D4F804E01C264FF0010C0146C2B2964587
:1015900000F101001CD800231C261946D8B286454C
:1015A00003F1010322D80FCD6E460FC60FCD0FC633
:1015B00095E8030086E8030097E80E00206801F034
:1015C00069F80123054600B3022284F8BD23D0E761
:1015D00006FB024383F83DC083F83C20A3F8422079
:1015E00083F83F10596499641965CFE706FB004200
:1015F00082F8FD1182F8FC0182F8FF11C2F8041292
:10160000C2F80812C2F81012C8E784F8380084F84B
:10161000BD33206801F002F928460BB0F0BD000090
:101620002DE9F341044618B9012002B0BDE8F0816C
:101630000368DD0710D42368980758D423681A0775
:1016400000F19A8023685B0700F1B880A269002A44
:1016500040F019810020E8E7A64B9A6802F00C02DE
:10166000042A07D09A6802F00C02082A0AD15B68A3
:10167000590207D59F4B1B689A03DCD56368002B82
:10168000D9D1D1E763689B4DB3F5803F11D12B6869
:1016900043F480332B60FFF7BFFB964D06462B6863
:1016A0009B03C8D4FFF7B8FB801B6428F7D903203D
:1016B000BBE7B3F5A02F04D12B6843F480232B6044
:1016C000E5E72A6822F480322A602A6822F4802220
:1016D0002A60002BDFD1FFF79FFB06462B689F0394
:1016E000A9D5FFF799FB801B6428F7D9DFE7814B69
:1016F0009A6812F00C0F07D09A6802F00C02082AC0
:1017000011D15B685E020ED47A4B1A68950702D538
:10171000E268012A88D11A68216922F0F80242EAB7
:10172000C1021A608AE7E268734BB2B101221A6003
:10173000FFF772FB6F4D06462B68980707D52B689D
:10174000226923F0F80343EAC2032B6076E7FFF730
:1017500063FB801B0228EFD9A9E71A60FFF75CFB47
:10176000644D06462B6899077FF568AFFFF754FB79
:10177000801B0228F6D99AE76269604B7AB1012290
:101780001A60FFF749FB5B4D06466B6F9F073FF5FD
:1017900059AFFFF741FB801B0228F6D987E71A6093
:1017A000FFF73AFB534D06466B6F98077FF54AAF3C
:1017B000FFF732FB801B0228F6D978E74D4B1A6CF5
:1017C00012F0805228D101921A6C42F080521A64B1
:1017D0001B6C03F080530193019B0126484D2B683D
:1017E000D9051BD5A368434D012B27D12B6F43F09F
:1017F00001032B67FFF710FB3E4D074641F2883887
:101800002B6F9B0739D5002E3FF420AF394A136C5C
:1018100023F08053136419E70026DFE72B6843F4B5
:1018200080732B60FFF7F8FA07462B68DA05D9D4E6
:10183000FFF7F2FAC01B0228F7D938E7052B04D1CD
:101840002B6F43F004032B67D0E72A6F22F00102CD
:101850002A672A6F22F004022A67002BCAD1FFF7F9
:10186000DBFA41F2883807462B6F9807CBD5FFF794
:10187000D3FAC01B4045F7D919E7FFF7CDFAC01BD3
:101880004045BDD913E71B4DAB6803F00C03082B93
:101890003FF4CAAE1B4E0023022A336034D1FFF757
:1018A000BBFA07462B6899011ED4226AE3691343E9
:1018B000626A43EA8213E26A43EA0263A26A0D4C57
:1018C0005208013A43EA02436B6001233360FFF799
:1018D000A3FA054623689A013FF5BCAEFFF79CFAD0
:1018E000401B0228F6D9E2E6FFF796FAC01B022851
:1018F000D8D9DCE60038024000004742800E47425B
:101900000070004060004742FFF786FA04462B68EB
:101910009B017FF59FAEFFF77FFA001B0228F6D9E7
:10192000C5E600BF134908B58B6803F00C03042B10
:1019300003D0082B03D0104808BD104808BD4A68E2
:101940004B68496813F4800314BF0C480A48C1F37C
:10195000881118BF002302F03F02A1FB0001FFF72E
:1019600089F8044B5B68C3F3014301335B00B0FBB0
:10197000F3F008BD003802400024F40000127A00A1
:101980002DE9F0410D46044610B90120BDE8F08173
:10199000444B1A6802F00F028A4228D321688F074D
:1019A0002DD4C80740D43F4B1A6802F00F0295426D
:1019B00066D3226851076CD4130707D53A4A2169C8
:1019C000936823F4604343EAC1039360FFF7AAFFDF
:1019D000354B364A9B68C3F30313D35CD840344B72
:1019E00018600020FFF7CEF90020BDE8F081CAB2F0
:1019F0001A701B6803F00F039942C6D1CEE72A4B39
:101A000011F0040F1EBF9A6842F4E0529A600E076C
:101A100042BF9A6842F460429A609A68A06822F0D5
:101A2000F00202439A60BCE762681F4B012A1DD195
:101A30001B6813F4003FA8D01B4EB36823F00303C8
:101A40001343B360FFF7E8F941F288380746B368FB
:101A5000626803F00C03B3EB820FA4D0FFF7DCF94C
:101A6000C01B4045F3D90320BDE8F081911E012938
:101A70001B6802D813F0007FDDE713F0020FDAE7EE
:101A8000EAB21A701B6803F00F039D427FF47DAF2A
:101A90008FE70549E0688B6823F4E05303438B60CC
:101AA0008AE700BF003C0240003802408243000841
:101AB00020000020014B1868704700BF2000002064
:101AC000044B054A9B68C3F38223D35C034A106826
:101AD000D8407047003802409243000820000020A0
:101AE000044B054A9B68C3F34233D35C034A106836
:101AF000D840704700380240924300082000002080
:101B0000F8B504460E4615461F4621688A6836EA2F
:101B1000020301D00020F8BD6B1CF7D0FFF77CF961
:101B2000C01B8542F1D823685A6822F0E0025A604F
:101B30006268B2F5827F0AD1A268B2F5004F02D086
:101B4000B2F5806F03D11A6822F040021A60A26ACF
:101B5000B2F5005F07D11A6822F400521A601A68C1
:101B600042F400521A60012384F85130002384F8B3
:101B700050300320F8BD000073B51346134A144ECD
:101B800015684268B5FBF6F64FF47A757543B2F501
:101B9000827F044601950DD10A468021FFF7B0FFF0
:101BA00010B9002002B070BD636D43F0200363657F
:101BB0000320F7E7019B002BF3D0019B013B01932E
:101BC00023689B681B06F5D4EBE700BF20000020CC
:101BD00000366E0110B50446002836D0002383621B
:101BE00090F8513003F0FF021BB980F8502001F04B
:101BF000FFF92168A068A269022384F851300B68BC
:101C000023F040030B6063680343E06803432069EB
:101C1000034360690343E0690343206A0343A06A06
:101C2000034302F4007003430B60120C636A02F07A
:101C300004021A434A60CB6923F40063CB6100209D
:101C40000123606584F8513010BD012010BD2DE9DD
:101C5000F7431E4690F850300A9F012B04460D466C
:101C6000914600F0E280012380F85030FFF7D4F86D
:101C700094F851306168DBB2012B80460AD0B1F58F
:101C8000827F40F0D080A068002840F0CC80042BF8
:101C900040F0C980002D00F0C480B9F1000F00F0C1
:101CA000C080002E00F0BD8094F85130C4F8389008
:101CB000042B1CBF052384F8513000236365236483
:101CC00063642368E687E6861A68A687500658BFCD
:101CD0001A68256358BF42F04002A68658BF1A60B2
:101CE000E268B2F5006F58D109B1012E07D135F87D
:101CF000022BDA60E38E2563013B9BB2E38601256C
:101D0000E38E9BB2ABB9E38F9BB293B9424639469F
:101D10002046FFF731FF002840F08180A368002BA8
:101D200032D123680190DA6801929B680193019B8C
:101D30002AE02268936899070DD5E38E9BB253B1D0
:101D40004DB1236B33F8021BD1602363E38E013B5B
:101D50009BB2E38600259368DB070CD5E38F9BB22B
:101D60004BB1A36BD26823F8022BA363E38F013B33
:101D70009BB2E3870125FFF74FF8A0EB08008742ED
:101D8000BED87E1CBCD00320012384F85130002330
:101D900084F8503003B0BDE8F08309B1012E08D1BA
:101DA0002A781A73236B01332363E38E013B9BB2C2
:101DB000E3860125E38E9BB21BB9E38F9BB2002B18
:101DC000A4D02268936898070ED5E38E9BB25BB1CE
:101DD00055B1236B1B781373236B01332363E38E9D
:101DE000013B9BB2E386002522689368D9070DD595
:101DF000E38F9BB253B1A36BD2681A70A36B01330C
:101E0000A363E38F013B9BB2E3870125FFF704F84F
:101E1000A0EB08008742CDD87B1CCBD0B3E72023B2
:101E200063650120B0E70220AEE70220B2E7036855
:101E3000DA6842F00102DA609A6802F00702062AC4
:101E40001EBF1A6842F001021A6000207047036842
:101E500089B1042907D01A6A22F001021A621A6AAB
:101E600042F001021A621A6A22F010021A621A6A19
:101E700042F0100206E01A6A22F001021A621A6A9F
:101E800042F001021A621A6842F001021A60002050
:101E90007047704770477047704703681A69910729
:101EA00010B504460ED5DA6892070BD56FF0020222
:101EB0001A619B6901229B07027777D0FFF7EAFF3F
:101EC0000023237723681A69500710D5DA68510771
:101ED0000DD56FF004021A619B69022213F4407F52
:101EE0002277204668D0FFF7D5FF002323772368A9
:101EF0001A6912070FD5DA6810070CD56FF00802BF
:101F00001A61DB6904229907227720465AD0FFF72D
:101F1000C1FF0023237723681A69D20610D5DA6837
:101F2000D0060DD56FF010021A61DB69082213F498
:101F3000407F227720464BD0FFF7ACFF002323776A
:101F400023681A69D10708D5DA68D20705D56FF07A
:101F500001021A61204600F07FFC23681A6910060E
:101F600008D5DA68110605D56FF080021A6120469F
:101F700000F020F923681A69520608D5DA6850067D
:101F800005D56FF040021A612046FFF785FF2368F0
:101F90001A69910622D5DA6892061FD56FF02002E1
:101FA00020461A61BDE8104000F003B9FFF771FF49
:101FB0002046FFF770FF83E7FFF76BFF2046FFF730
:101FC0006AFF92E7FFF765FF2046FFF764FFA0E78F
:101FD000FFF75FFF2046FFF75EFFAFE710BD000091
:101FE000304A0368904212D0B0F1804F0FD0A2F572
:101FF0007C4290420BD002F58062904207D002F5FD
:102000008062904203D002F57842904219D14A682A
:1020100023F070031343234A904229D0B0F1804F3C
:1020200026D0A2F57C42904222D002F580629042F6
:102030001ED002F5806290421AD002F5784290429A
:1020400016D0194A904213D002F5806290420FD008
:1020500002F5806290420BD0A2F59832904207D0F0
:1020600002F58062904203D002F58062904203D173
:10207000CA6823F4407313434A6923F0800313436F
:1020800003608B68C3620B688362064B984203D07F
:1020900003F58063984201D10B6903630123436117
:1020A000704700BF000001400040014010B50446E9
:1020B000A0B190F83D3003F0FF021BB980F83C203E
:1020C00001F052F8022384F83D302068211DFFF70B
:1020D00087FF012384F83D30002010BD012010BD92
:1020E000F8B50C460546002843D090F83D3003F083
:1020F000FF021BB980F83C2000F0C6FF29460223EE
:1021000051F8040B85F83D30836823F4804323F0B5
:1021100007038360FFF764FF286823688668826985
:10212000A168076A1E43A36922F4407222F00302E9
:1021300041EA0323134323F47C422369E1691B0131
:1021400043EA0123E1680B43216A22F0FC0243EADF
:1021500001331343616927F0AA026768866047EA82
:102160000117836117430123076285F83D30002082
:10217000F8BD0120F8BD90F83C30012B30B54FF090
:10218000020314D0046880F83D306268A3680D68CB
:10219000496822F0700223F080030B432A436260F7
:1021A000A360012380F83D30002380F83C301846BE
:1021B00030BD7047704700002DE9F0470668C268DF
:1021C0003369C16923F44053134333610446836880
:1021D0000069F2680343606922F41642034322F067
:1021E0000C020B431343F3607369A26923F4407339
:1021F0001343B1F5004F73617A4B7CD19E4203D0FB
:1022000003F580639E4244D1FFF76AFC192505FB64
:1022100000F360684FF064094000B3FBF0F3B3FBD8
:10222000F9F34FEA0318FFF75BFC636868435B0050
:10223000B0FBF3F7FFF754FC636868435B00B0FB47
:10224000F3F3B3FBF9F309FB1373DB003233B3FB96
:10225000F9F35B0003F4F877FFF742FC6268684328
:102260005200B0FBF2FAFFF73BFC636868435B0087
:10227000B0FBF3F3B3FBF9F309FB13A3DB00323339
:10228000B3FBF9F303F0070343443B44B360BDE8F9
:10229000F087FFF715FC192505FB00F360684FF088
:1022A00064094000B3FBF0F3B3FBF9F34FEA031802
:1022B000FFF706FC636868435B00B0FBF3F7FFF7CA
:1022C000FFFB636868435B00B0FBF3F3B3FBF9F318
:1022D00009FB1373DB003233B3FBF9F35B0003F448
:1022E000F877FFF7EDFB626868435200B0FBF2FA43
:1022F000FFF7E6FBB9E79E4202D03B4B9E4240D13E
:10230000FFF7EEFB676819254FF0640905FB00F342
:10231000BF00B3FBF7F3B3FBF9F31F01FFF7E0FBDB
:10232000636868439B00B0FBF3F8FFF7D9FB636871
:1023300068439B00B0FBF3F3B3FBF9F309FB138392
:102340001B013233B3FBF9F303F0F008FFF7C8FBCE
:10235000626868439200B0FBF2FAFFF7C1FB636862
:1023600068439B00B0FBF3F3B3FBF9F309FB13A342
:102370001B013233B3FBF9F303F00F0343EA080305
:1023800083E7FFF79DFB676819254FF0640905FB9C
:1023900000F3BF00B3FBF7F3B3FBF9F31F01FFF743
:1023A0008FFB636868439B00B0FBF3F8FFF788FB83
:1023B000636868439B00B0FBF3F3B3FBF9F309FBDD
:1023C00013831B013233B3FBF9F303F0F008FFF77B
:1023D00077FB626868439200B0FBF2FAFFF770FB8C
:1023E000BDE700BF0010014000140140F8B50446ED
:1023F0000E4617461D4621680B6836EA030301D1D5
:102400000020F8BD6B1CF7D095B92368DA6822F478
:10241000D072DA605A6922F001025A61202384F8EE
:10242000393084F83A30002384F838300320F8BD7E
:10243000FEF7F2FCC01B8542DDD2E6E710B504468C
:1024400040B390F8393003F0FF021BB980F8382010
:1024500000F0A8FE2268242384F83930D36823F4DE
:102460000053D3602046FFF7A7FE23681A6922F4C1
:1024700090421A615A6922F02A025A61DA6842F4DB
:102480000052DA6000202023E06384F8393084F8B9
:102490003A3010BD012010BD2DE9F0411F4690F8E3
:1024A0003930202B04460D4690464FD100294AD0A2
:1024B000002A48D090F83830012B47D0012380F80B
:1024C00038300023C363212380F83930FEF7A4FCA1
:1024D000A4F824800646A4F82680E38C9BB26BB94E
:1024E0003B46324640212046FFF780FFB0B920230B
:1024F00084F8393084F83800BDE8F081E38C013B82
:102500009BB2E384A368B3F5805F32463B464FF04D
:10251000800120460ED1FFF769FF10B10320BDE80E
:10252000F0812B882268C3F308035360236943B901
:102530000235D2E7FFF75AFF0028EFD123682A7847
:102540005A600135C9E70120BDE8F0810220BDE8ED
:10255000F08100000A4B013B01D103207047026962
:10256000002AF8DA0369064A43F001030361013ADD
:10257000F3D0036913F00103F9D11846704700BF87
:10258000410D030084B038B505AD85E80E000A9B07
:10259000012B044625D1836B23F480338363C36806
:1025A00023F4840323F04003C360C36823F440137F
:1025B000C360119B012B02BFC36843F48013C36047
:1025C000FFF7C8FF089B012B07D1A36843F0060360
:1025D000A360A36843F02003A360BDE8384004B0C3
:1025E0007047C36843F04003C360FFF7B3FF0E9B1F
:1025F00023B9A36B43F48033A363E3E7A36B23F412
:102600008033F9E7836823F001038360002070477B
:1026100008B5C368012923F0C043C36008D1C3686B
:1026200043F00053C3603220FEF7FCFB002008BDDE
:1026300019B9C36843F08043F4E7012008BD0000E6
:10264000890141F02001064A0161013A05D0036980
:1026500013F02003F9D1184670470320704700BFDC
:10266000410D03001023064A0361013A05D00369B6
:1026700013F01003F9D1184670470320704700BFCC
:10268000410D0300D0F800381943C0F800180020AD
:102690007047000084B02DE9F047044609A880E89F
:1026A0000E0000230C9F139E8846194603F140023A
:1026B00004EB820201330F2B5160F7D1002E73D14E
:1026C000A36B43F40013A363A36B23F40023A3635E
:1026D000A36B23F48023A3630023C4F8003ED4F843
:1026E0000038C4F800380E9B012B04F5006565D155
:1026F0000B99002960D12046FFF7C4FF1021204626
:10270000FFF79EFF01462046FFF7ACFF002857D198
:10271000081C18BF012000232B6104F510626B61B7
:102720001946EB614FF0904E4FF0006C4FF67F3939
:10273000434547D1002104F530628E464FF0904C5E
:102740004FF000684FF67F398B424ED12B69012F35
:1027500023F480732B6107D12E4B2B632B6B43F437
:10276000803343F003032B630023A3616FF08043A6
:1027700063611FB9A36943F01003A361A269264BEB
:102780001343A3610F9B1BB1A36943F00803A3612B
:10279000012E01BFA36943F0804343F00403A3610A
:1027A000BDE8F04704B07047236823F400132360AA
:1027B000A36B43F400238EE719469CE703219AE7B5
:1027C0000120A8E7D2F800A0BAF1000F0BDA3BB95C
:1027D000C2F800C011610133C2F808902032A7E7A7
:1027E000C2F800E0F6E71160F4E7D2F800A0BAF111
:1027F000000F0CDA41B9C2F80080C2F810E00131D4
:10280000C2F8089020329FE7C2F800C0F5E7C2F88E
:1028100000E0F2E70001800000383C8008B5D0F805
:10282000043843F00203C0F804380320FEF7FAFA34
:10283000002008BD07B502A9FF2341F8040D0122BD
:102840000348FFF729FE019803B05DF804FB00BFC1
:10285000E8000020000000002DE9F84F464B8342BD
:102860007DD1464B464D586A464B1860464B1B6817
:102870001C68464BC4F300141C70FDF75BFE3AA3C2
:10288000D3E90023FDF7BCFE39A3D3E90023FDF70C
:10289000E1FF3F4B82468B46C3E900AB3D4BD3E99A
:1028A00000893D4BD3E90023FDF7F6FC42464B4639
:1028B000FDF7D0FF02460B4650465946FDF7ECFCAB
:1028C000364B06460F46C3E90067D5E90023FDF7FE
:1028D000E3FC334BD3E90023FDF792FE42464B461F
:1028E000FDF7B8FF2F4B8046D3E9002389463046D9
:1028F0003946FDF785FE02460B4640464946FDF740
:10290000CDFC254BC5E90067C3E900ABFEF78AF8AB
:1029100022460146244800F0A1FD4FF08043234A9F
:102920005B6A13809BB24FF4B4725A43204B1B680E
:1029300003EBE223B3F5B47F1E4A01DC136005E02C
:10294000A3F5B471B1F5B47F06DC116011681A48C3
:10295000BDE8F84F00F082BDA3F53473EEE7BDE8A3
:10296000F88F00BFAFF300801F85EB51B81E1940F0
:102970000000000000C0724030050020000001404F
:10298000C8000020B000002070050020A600002034
:10299000C000002008000020D0000020A800002077
:1029A00010000020180000202C430008B400002074
:1029B000BC000020B80000204B43000830B595B0A3
:1029C0003022002108A800F041FD0021142203A8B4
:1029D00000F03CFD00241D4B01941A6C42F0805223
:1029E0001A641B6C03F080530193019B184B0294F3
:1029F0001A6842F440421A601B6803F44043029391
:102A0000029B012308934FF4A02309934FF4800302
:102A10000F9304231093A8230225119308A80723DA
:102A200013930E951295FEF7FBFD0F2303934FF4BE
:102A3000A053069305214FF4805303A804950594F1
:102A40000793FEF79DFF15B030BD00BF0038024070
:102A500000700040012210210148FEF747BD00BF71
:102A600000000240002210210148FEF73FBD00BFD8
:102A7000000002401FB500238DF808308DF80C00CF
:102A8000FFF7F0FF4FF47A73009303A9012302AA22
:102A90000848FFF7DCF8014610B1074800F0DEFCFB
:102AA000FFF7D8FF3C20FEF7BDF99DF8080005B000
:102AB0005DF804FBB005002056430008F8B51C4D36
:102AC0001C4C2A681C4F1368002643F040032680E4
:102AD0001360FFF7C7FF1020FFF7CCFF0A20FEF7B7
:102AE000A1F93046FFF7C6FF0646102E4FF0000052
:102AF00013D1FFF7BFFF07460020FFF7BBFF0646D5
:102B0000FFF7A8FF2A68136807F00F0723F04003B8
:102B100006EB072613602680F8BDFFF7ABFF0146E2
:102B20000646384600F09AFC0220FEF77BF9DCE707
:102B3000B0050020A40000207B43000880B592B0BF
:102B400009ADFEF743F9FFF739FF142200212846AB
:102B5000002400F07BFCB44B00941A6BB348B44FD4
:102B6000DFF818A3DFF8188342F004021A631A6B27
:102B700002F004020092009A01941A6B42F0800263
:102B80001A631A6B02F080020192019A02941A6B86
:102B900042F001021A631A6B02F001020292029AD9
:102BA00003941A6B42F010021A631A6B02F01002BF
:102BB0000392039A04941A6B42F002021A631A6B8E
:102BC00002F002020492049A05941A6B42F0080281
:102BD0001A631A6B02F008020592059A06941A6BA2
:102BE00042F040021A631B6B03F040030693224637
:102BF0001021069BFEF77AFC22464FF481418D4856
:102C0000FEF774FC224640218B48FEF76FFC2246FB
:102C10004FF400718948FEF769FC4FF400532946D0
:102C20008648099301260A970B94FEF773FB10233D
:102C300029467E4809930A960B940C94FEF76AFB8A
:102C40004FF4004329467E4809930A970B94FEF7F8
:102C500061FB4FF481432946764809930A960B9409
:102C60000C94FEF757FB40232946734809938027AD
:102C70000A960B940C94FEF74DFB29466E48099773
:102C80004FF400790A940B94FEF744FB29466B48F5
:102C9000CDF824900A960B940C94FEF73BFB224649
:102CA00021462820FEF7E4F82820FEF715F96548AC
:102CB000654B8DF8257080E84800E1238DF82630BB
:102CC0004FF400030362456104828DF824408DF8BF
:102CD00027408DF828408DF829408461C461FEF7B3
:102CE0001DFA24222146284600F0B0FB574F584BCE
:102CF0000794294687E81800384643F65803FB60D6
:102D00000894BC603C617C61BC6109960B960F968F
:102D1000FFF7E6F907A9384607940894FFF72BFA5E
:102D20004C484D4A84604FF4E13380E80C000C239A
:102D30004361C46004618461C461FFF77FFB47485D
:102D40004FF0A041042380E80A000223C36083619E
:102D50000461C66104624462C6620463FEF7D8FB84
:102D60003F486C604AF20F438AE80900C723504687
:102D7000CAF80C300994CAF80840CAF81840FFF79E
:102D800095F92946504609940A94FFF7F4F924224C
:102D90002146284600F05AFB4FF08043294688E838
:102DA000180040464FF48053C8F80C30079408943C
:102DB000C8F80840C8F81040C8F8184009960B96A3
:102DC0000F96FFF78DF907A9404607940894FFF77F
:102DD000D2F92448244B84604FF4827580E828009F
:102DE0002823C3610A23C362C46004614461C0F83C
:102DF0001890046244628462FEF7ECFE1B4800F007
:102E0000A1FBFFF727FEFFF759FE194B19481B8856
:102E10004FF4B4715943184B0913196000F01EFBAD
:102E20003C2138462EE000BF00380240000002403E
:102E30000000111000040240001802400008024087
:102E4000001002404806002000800240700500206B
:102E500000000140E8000020004800402801002058
:102E600000100040B0050020003001406043000821
:102E7000A400002067430008BC00002030050020AB
:102E800008060020FEF7E3FF3C214046FEF7DFFF87
:102E90005046FEF7CCFFFEE77047000082B00C4BB7
:102EA000002100915A6C42F480425A645A6C02F438
:102EB00080420092009A01911A6C42F080521A648A
:102EC0001B6C03F080530193019B02B0704700BF5D
:102ED00000380240F0B504468DB01422002107A846
:102EE00000F0B4FA22683D4B9A4274D1A3F59043A6
:102EF000002400941A6B3A4842F000721A631A6B6D
:102F000002F000720092009A01941A6B42F0806203
:102F10001A631A6B02F080620192019A02941A6B92
:102F200042F000621A631A6B02F000620292029A87
:102F300003941A6B42F004021A631A6B02F0040243
:102F40000392039A04941A6B42F001021A631A6BFB
:102F500002F001020492049A05941A6B42F00202F4
:102F60001A631A6B02F002020592059A06941A6B14
:102F700042F040021A631B6B03F0400306930227E2
:102F800003260B25069B0897322307A907930A9669
:102F90000B95FEF7BFF9862307A9124807930897F8
:102FA00009940A960B95FEF7B5F94FF4005307A95B
:102FB0000D480793089709940A960B95FEF7AAF90E
:102FC0004FF4205307A909480793089709940A96D4
:102FD0000B95FEF79FF90DB0F0BD00BF00800240D9
:102FE00000080240000002400004024000180240B5
:102FF000F0B5044689B01422002103A800F026FA97
:1030000022681E4B9A4236D103F584330024009483
:103010005A6C1B4842F480525A645A6C02F4805233
:103020000092009A01941A6B42F001021A631A6B23
:1030300002F001020192019A02941A6B42F002021C
:103040001A631B6B03F002030293029B02276023A7
:103050000326052503A90393049706960795FEF713
:1030600059F9202303A9074803930497059406966A
:103070000795FEF74FF909B0F0BD00BF00300140E1
:10308000000002400004024070B514228AB00446D9
:1030900000210DEB020000F0D9F923682D4A93427C
:1030A00022D12D4B2D48002100915A6C42F0010293
:1030B0005A645A6C02F001020092009A01911A6B54
:1030C00042F010021A631B6B03F010030193019B83
:1030D0004FF420630593022306930123099305A966
:1030E000FEF718F90AB070BDB3F1804FFAD103F5BD
:1030F0000E33002402941A6C194842F001021A643B
:103100001A6C02F001020292029A03941A6B42F0C6
:1031100001021A631A6B02F001020392039A0494EB
:103120001A6B42F002021A631B6B03F002030125C3
:103130000493022605A9049B059506960995FEF7BA
:10314000E9F808230593069607940894099505A9BC
:103150000448C5E70000014000380240001002406A
:10316000000002400004024007B50D4B02689A427D
:1031700013D1002203F50A330192196C41F01001BA
:1031800019641B6C03F01003019336201146019B58
:10319000FDF76EFE3620FDF79FFE03B05DF804FBE1
:1031A0000010004010B5044688B01422002103A886
:1031B00000F04CF92268154B9A4225D103F5F833FB
:1031C000002101911A6C124842F480221A641A6C90
:1031D00002F480220192019A02911A6B42F00802D5
:1031E0001A631B6B03F008030293029B4FF44073B6
:1031F000039302230493012305930323069303A956
:1032000007230793FEF786F808B010BD004800407A
:10321000000C024030B5044689B01422002103A8F6
:1032200000F014F92368B3F1A04F2FD1184C1948BE
:1032300000250195236B43F001032363236B03F007
:1032400001030193019B4FF4E8530393022304937A
:103250000323069303A90A230793FEF75BF84FF4B1
:10326000007303A90B48039304950595FEF752F8E4
:10327000636B43F0800363630295636C43F48043A4
:103280006364636C03F480430293029B09B030BD16
:1032900000380240000002407047FEE7FEE7FEE70C
:1032A000FEE7704770477047FDF7AABD08B52820B4
:1032B000FDF736FE4FF40050FEF71EF94FF40040C4
:1032C000BDE80840FEF718B90148FEF7E6BD00BFAB
:1032D0003005002070B50E4615460C46A31B9D42D6
:1032E00001DC284670BDAFF3008004F8010BF5E760
:1032F00070B50E4615460C46A31B9D4201DC2846C0
:1033000070BD14F8010BFFF795FAF5E708B50A4B05
:103310001968024609B909491960186869460244E2
:103320008A4206D900F068F80C2303604FF0FF30A2
:1033300008BD1A6008BD00BFD80000209406002018
:103340004FF0FF3070474FF400534B600020704740
:1033500001207047002070470F49D1F8883043F4AE
:103360007003C1F888300D4B1A68002042F001024A
:103370001A6098601A6822F0847222F480321A600F
:10338000074A5A601A6822F480221A60D8604FF007
:1033900000638B60704700BF00ED00E00038024022
:1033A00010300024DFF834D0002103E00C4B5B58D0
:1033B000435004310B480C4B42189A42F6D30B4A47
:1033C00002E0002342F8043B094B9A42F9D3FFF78D
:1033D000C3FF00F017F8FFF7B1FB704700000320B0
:1033E00044440008000000208800002088000020DD
:1033F00094060020FEE70000014B1868704700BFEC
:103400002400002070B50D4E0D4CA41BA410002507
:10341000A54209D10B4E0C4C00F07CFFA41BA4105C
:103420000025A54205D170BD56F8253098470135D5
:10343000EEE756F8253098470135F2E73C4400089E
:103440003C4400083C440008404400080244034651
:10345000934200D1704703F8011BF9E70FB40A4B00
:1034600013B51C6824B1A36913B9204600F024FAEF
:1034700005AB049AA1680193204600F0E1FB02B07D
:10348000BDE8104004B070472400002070B50E461F
:10349000054618B183690BB900F00EFAAB69AC6848
:1034A00013B9284600F008FA234B9C4217D16C68E8
:1034B000A3891B071DD52369DBB1013EA36816F85C
:1034C000011F013BA360E9B9002B2EDA22460A2135
:1034D000284600F03FF8013011D00A2070BD174B8C
:1034E0009C4201D1AC68E3E7154B9C4208BFEC68F5
:1034F000DEE72146284600F07FF80028DDD04FF0B7
:10350000FF3070BD002B04DAA269934206DB0A2962
:1035100004D023685A1C22601970CFE7224628463F
:1035200000F018F80130C9D1E9E723680A205A1CD5
:103530002260187070BD00BFC0430008E04300085F
:10354000A0430008024B01461868FFF79FBF00BF69
:1035500024000020F8B50E461446054618B18369CC
:103560000BB900F0A9F9214B9C422AD16C68A369E0
:10357000A360A3891A072ED5236963B32369206842
:10358000C01A6369F6B29842374604DB21462846E2
:1035900000F028F928BBA368013BA36023685A1CEC
:1035A00022601E7063690130984204D0A389DB0752
:1035B00019D50A2E17D12146284600F013F990B1EB
:1035C0000FE00B4B9C4201D1AC68D0E7094B9C4209
:1035D00008BFEC68CBE72146284600F00DF800282C
:1035E000CCD04FF0FF373846F8BD00BFC0430008CD
:1035F000E0430008A0430008324B70B51D68064642
:103600000C4625B1AB6913B9284600F055F92E4B8D
:103610009C420FD16C68B4F90C309AB215072CD4C7
:10362000D00611D40922326043F04003A3814FF049
:10363000FF3070BD254B9C4201D1AC68EBE7244BB9
:103640009C4208BFEC68E6E7510712D5616B41B1B7
:1036500004F14403994202D0304600F01BFA0023E3
:103660006363A38923F02403A38100236360236998
:103670002360A38943F00803A38123694BB9A3897D
:1036800003F42073B3F5007F03D02146304600F0E9
:10369000C1F9A28912F001030CD00023A360636971
:1036A0005B42A361236953B9B4F90C3013F0800075
:1036B000BAD170BD920758BF6369A360F2E70020DA
:1036C000F7E700BF24000020C0430008E0430008E3
:1036D000A04300088A892DE9F041054610070C46F1
:1036E0005AD44B68002B05DC0B6C002B02DC00204D
:1036F000BDE8F081E66A002EF9D0002312F4805272
:103700002F682B6033D0606DA3895A0705D5636895
:10371000C01A636B0BB1236CC01A00230246E66A21
:10372000216A2846B047431CA38906D129681D2970
:103730004BD82B4ACA40D60747D500226260D9042D
:103740002269226004D5421C01D12B6803B960654F
:10375000616B2F600029CAD004F14403994202D062
:10376000284600F097F900206063BDE8F081216AE7
:1037700001232846B047411CC6D12B68002BC3D07B
:103780001D2B01D0162B01D12F60B0E7A38943F088
:103790004003A381BDE8F0810F69002FA7D09307F4
:1037A0000E6808BF4B690F6018BF0023A6EB07081F
:1037B0008B60B8F1000F9ADD43463A46216AA66A4B
:1037C0002846B047002807DCA38943F04003A381C3
:1037D0004FF0FF30BDE8F0810744A8EB0008E8E7B0
:1037E0000100402038B50B6905460C46DBB118B125
:1037F00083690BB900F060F80C4B9C4209D16C68EE
:10380000B4F90C307BB121462846BDE83840FFF7BB
:1038100061BF074B9C4201D1AC68F1E7054B9C426C
:1038200008BFEC68ECE7002038BD00BFC0430008CB
:10383000E0430008A0430008014900F0A9B800BF18
:10384000E5370008002310B5044603604360836039
:1038500081814366C2810361436183611946082205
:103860005C30FFF7F3FD054B6362054BA362054B2C
:10387000E362054B2462236310BD00BFB941000819
:10388000DB410008134200083742000870B54A1EA9
:10389000682555430E4605F1740100F049F90446C8
:1038A00040B1002180E842000C30A06005F16802C0
:1038B000FFF7CCFD204670BD836910B5044633BBCD
:1038C0008364C3640365124B124A1B688262984288
:1038D00004BF0123836100F01FF86060204600F000
:1038E0001BF8A060204600F017F80022E0600421D9
:1038F0006068FFF7A7FF01220921A068FFF7A2FF78
:1039000002221221E068FFF79DFF0123A36110BD91
:103910009C43000839380008F8B51C4B1E68B36991
:10392000074613B93046FFF7C7FF4836B4687368D7
:10393000013B03D5336833B13668F7E7B4F90C506F
:103940006DB16834F4E704213846FFF79FFF30601B
:103950000028F1D10C233B6004462046F8BD4FF609
:10396000FF73E3810123A38165662560A56065601F
:1039700025616561A5610822294604F15C00FFF715
:1039800065FD6563A563A564E564E6E79C430008FF
:103990002DE9F8438046894600F14804002614B911
:1039A0003046BDE8F883A5686768013F01D5246803
:1039B000F5E7AB89012B07D9B5F90E30013303D0F8
:1039C00029464046C84706436835EEE770B50E46BF
:1039D000B1F90E10002990B014461D4607DA0023F5
:1039E0002B60B3891A0610D44FF480630EE001AA4D
:1039F00000F048FC0028F2DB029A02F47042A2F5C3
:103A000000535A425A412A60EEE7402300202360C7
:103A100010B070BD8B8973B59D0706460C4607D55F
:103A200004F14703236023610123636102B070BD89
:103A300001AB6A46FFF7CAFF00990546304600F021
:103A400077F848B9B4F90C309A05EFD423F00303A2
:103A500043F00203A381E3E70D4BB362A389206027
:103A600043F08003A381009B6361019B20615BB1F4
:103A7000B4F90E10304600F017FC28B1A38923F0EA
:103A8000030343F00103A381A3891D43A581CDE76F
:103A90003938000838B50546002945D051F8043CAE
:103AA0000C1F002BB8BFE41800F020FC1F4A13685D
:103AB000104633B9636014602846BDE8384000F012
:103AC00016BCA3420CD921686218934204BF1A683D
:103AD0005B68636004BF521822600460ECE7134621
:103AE0005A680AB1A242FAD919685818A0420BD1F3
:103AF00020680144581882421960DDD1106852686C
:103B00005A6001441960D7E702D90C232B60D3E730
:103B1000206821188A4204BF11685268626004BF9D
:103B2000091821605C60C7E738BD00BFDC000020D9
:103B300070B5CD1C25F0030508350C2D38BF0C25BC
:103B4000002D064601DBA94203D90C233360002077
:103B500070BD00F0CBFB234A1468214691B9224C7A
:103B600023681BB9304600F017FB20602946304619
:103B700000F012FB431C26D10C233360304600F0CA
:103B8000B6FBE4E70B685B1B1AD40B2B0FD90B6059
:103B9000CD50CC18304600F0AAFB04F10B00231DD9
:103BA00020F00700C31A1BD05A42E25070BD8C426D
:103BB0000DBF63684B686360136018BF0C46E9E78C
:103BC0000C464968CAE7C41C24F00304A04205D08F
:103BD000211A304600F0E0FA0130CDD02560D9E757
:103BE00070BD00BFDC000020E00000209368013BB6
:103BF000002B10B4936009DA9469A34202DBCBB2C4
:103C00000A2B03D15DF8044BFFF7A4BC1368581CC2
:103C100010601970C8B25DF8044B7047F8B50646DD
:103C20000F461446D518AC4201D1002007E03A46B1
:103C300014F8011B3046FFF7D9FF431CF3D1F8BD40
:103C40002DE9F04F9DB00C4617460393064618B178
:103C500083690BB9FFF730FE7C4B9C4257D17468E7
:103C6000A38918075DD52369002B5AD00023099337
:103C700020238DF8293030238DF82A304FF0010BA6
:103C8000B846454615F8013B002B55D1B8EB070A5D
:103C90000BD053463A4621463046FFF7BFFF01306E
:103CA00000F0C480099B5344099398F80030002B1E
:103CB00000F0BC8000234FF0FF320493079305927D
:103CC00006938DF853301A93052229786048FCF743
:103CD0008FFA05F10108049B002831D1D90644BFB1
:103CE00020228DF853201A0744BF2B228DF8532031
:103CF0002A782A2A2CD0079A00210A20A8460135C2
:103D000098F80030303B092B6DD971B326E0514B48
:103D10009C4201D1B468A3E74F4B9C4208BFF468B2
:103D20009EE721463046FFF767FC00289ED04FF003
:103D3000FF301DB0BDE8F08F252BA7D0A846A0E727
:103D4000434A801A0BFA00F0184304904546BBE73B
:103D5000039A111D12680391002A01DB079204E007
:103D6000524243F002030792049398F800302E2B3E
:103D700010D198F801302A2B08F1010137D1039BAB
:103D80001A1D1B680392002BB8BF4FF0FF3308F1D8
:103D900002080593314D98F8001003222846FCF7DD
:103DA00027FA40B14023401B03FA00F0049B034371
:103DB000049308F1010898F8001029488DF828109C
:103DC000062208F10107FCF713FA002834D0254B2E
:103DD00003BB039B073323F0070308330393099BBB
:103DE0004B4409934CE700FB0232012186E7002394
:103DF000059318460A258846013198F80020303A84
:103E0000092A03D9002BC5D00590C3E705FB002084
:103E10000123F0E703AB00932246134B04A930467D
:103E2000AFF30080B0F1FF3F8146D8D1A3895B0694
:103E30003FF57DAF09987CE703AB009322460A4B20
:103E400004A9304600F088F8ECE700BFC043000842
:103E500000440008E0430008A043000806440008AE
:103E60000A440008000000001D3C00082DE9F0474E
:103E700091461F468A680B69DDF820809342B8BFDF
:103E80001346C9F8003091F8432006460C4612B19B
:103E90000133C9F800302368990642BFD9F80030D1
:103EA0000233C9F80030256815F0060507D104F182
:103EB000190AE368D9F800209B1A9D4229DB94F87F
:103EC00043302268003318BF012392062ED404F138
:103ED000430239463046C047013021D02368E568A7
:103EE000D9F8002003F00603042B08BFAD1AA3681D
:103EF00022690CBF25EAE57500259342C4BF9B1AD1
:103F0000ED184FF000091A344D451BD10020BDE8D3
:103F1000F0870123524639463046C047013003D16D
:103F20004FF0FF30BDE8F0870135C2E7E1185A1CB9
:103F3000302081F84300224494F8451082F8431061
:103F40000233C4E70123224639463046C0470130D8
:103F5000E6D009F10109D7E72DE9F04317460A7EBB
:103F600085B06E2A984606460C460C9B01F1430E1E
:103F700000F0BC801AD8632A2ED00AD8002A00F09C
:103F8000C880582A00F08A8004F1420584F8422053
:103F90002AE0642A01D0692AF6D121681A6811F052
:103FA000800F23D0111D1960136827E0732A00F0D9
:103FB000B48008D86F2A2AD0702AE5D10A6842F066
:103FC00020020A6003E0752A21D0782ADCD1782209
:103FD00084F845206E4964E01A6801F14205111D1C
:103FE0001960136884F842300123A3E011F0400FF8
:103FF00002F104011960D7D0B2F90030002B03DAC6
:104000002D225B4284F8432062490A2217E020688F
:10401000196810F0800F03D0081D18600B6806E0C7
:1040200010F0400F01F104001860F7D00B885949D7
:104030006F2A14BF0A220822002084F84300656812
:10404000A560002DC0F29C80206820F00400206054
:10405000002B3FD1002D40F095807546082A0BD1EA
:104060002368DA0708D5236962689A42DEBF3023E5
:1040700005F8013C05F1FF35AEEB05032361CDF8F2
:1040800000803B4603AA21463046FFF7EFFE013091
:1040900055D14FF0FF3005B0BDE8F08381F84520E1
:1040A0003C492268186812F0800F00F104051D6079
:1040B00001D0036802E05506FBD50388D00744BF52
:1040C00042F0200222601BB9226822F02002226006
:1040D0001022B1E77546B3FBF2F002FB1033CB5C64
:1040E00005F8013D03460028F5D1B7E708681A68CE
:1040F000496910F0800F04D0101D18601368196012
:1041000007E010F0400F02F1040018601368F6D0C9
:104110001980002323617546B1E71A68111D1960E3
:104120001568626800212846FCF762F808B1401B58
:10413000606063682361002384F843309FE723694C
:104140002A4639463046C0470130A2D023689B0733
:1041500007D5002504F11909E368039A9B1A9D42CB
:1041600005DBE068039B9842B8BF184693E701233C
:104170004A4639463046C04701308AD00135EBE720
:10418000002BA7D10B7884F8423004F1420565E793
:10419000224400081144000838B5064C00230546A7
:1041A00008462360FFF7B2F8431C02D1236803B12D
:1041B0002B6038BD9006002010B50C46B1F90E10EA
:1041C00000F096F80028ABBF636DA3891B1823F499
:1041D0008053ACBF6365A38110BD2DE9F0411F463C
:1041E0008B89DB0505460C46164605D502230022C1
:1041F000B1F90E1000F068F8A389B4F90E1023F499
:104200008053A38132463B462846BDE8F04100F08A
:1042100017B810B50C46B1F90E1000F055F8431C54
:10422000A38915BF606523F4805343F48053A381B1
:1042300018BFA38110BDB1F90E1000F013B8000033
:1042400038B5074C054608461146002222601A463A
:10425000FFF74EF8431C02D1236803B12B6038BD31
:104260009006002038B5064C00230546084623601A
:10427000FFF766F8431C02D1236803B12B6038BDF9
:104280009006002038B5074C002305460846114625
:104290002360FFF758F8431C02D1236803B12B6059
:1042A00038BD00BF9006002038B5064C00230546F7
:1042B00008462360FFF74CF8431C02D1236803B182
:1042C0002B6038BD9006002038B5074C05460846DF
:1042D0001146002222601A46FFF73CF8431C02D127
:1042E000236803B12B6038BD9006002070477047EB
:1042F00038B5074C054608461146002222601A468A
:10430000FEF7E8FF431C02D1236803B12B6038BDE0
:1043100090060020F8B500BFF8BC08BC9E46704768
:0C432000F8B500BFF8BC08BC9E46704712
:10432C00436F756E746572203D2025642C204469A2
:10433C0072656374696F6E203D2025640D0A0064FC
:10434C006567203A2025640D0A007478203A2025F0
:10435C00640D0A0073746172740D00696E69746186
:10436C006C5F76616C7565203A2025640D0A00300F
:10437C007825580D0A000000000000000000010222
:10438C0003040607080900000000010203040000F2
:10439C0028000020000000000000000000000000C9
:1043AC000000000000000000000000000000000001
:1043BC0000000000000000000000000000000000F1
:1043CC0000000000000000000000000000000000E1
:1043DC0000000000000000000000000000000000D1
:1043EC0000000000000000000000000000000000C1
:1043FC0000000000232D302B2000686C4C006566FB
:10440C006745464700303132333435363738394119
:10441C00424344454600303132333435363738392F
:08442C00616263646566000033
:0844340070C6FF7F01000000CB
:04443C00D50100089E
:04444000B1010008BE
:1044440001000000100000009A9999999999B93FC8
:104454009A9999999999A93F295C8FC2F528E43FC3
:104464000024F4002800002000000000C0430008DD
:10447400E0430008A0430008000000000000000022
:104484000000000000000000000000000000000028
:104494000000000000000000000000000000000018
:1044A4000000000000000000000000000000000008
:1044B40000000000000000000000000000000000F8
:0844C4000000000000000000F0
:04000005080033A517
:00000001FF
