:020000040800F2
:10000000080B0020153C0008893A00088B3A0008CC
:100010008D3A00088F3A0008913A0008000000006D
:10002000000000000000000000000000933A0008FB
:10003000953A000800000000973A0008993A000835
:10004000393C00083D3C0008413C0008453C0008A4
:10005000493C00084D3C0008513C0008553C000854
:10006000593C00085D3C0008613C0008653C000804
:10007000693C00086D3C0008713C0008753C0008B4
:10008000793C00087D3C0008813C0008853C000864
:10009000893C00088D3C0008913C0008953C000814
:1000A000993C00089D3C0008A13C0008A53C0008C4
:1000B000A93C0008AD3C0008B13C0008B53C000874
:1000C000B93C0008BD3C0008C13C0008C53C000824
:1000D000C93C0008CD3C0008D13C0008D53C0008D4
:1000E0009D3A0008D93C0008DD3C0008E13C0008CE
:1000F000E53C0008E93C0008ED3C0008F13C000844
:10010000F53C0008F93C0008FD3C0008013D0008F2
:10011000053D0008093D0008B93A00080D3D0008FA
:10012000BF3A0008113D0008153D0008193D0008C0
:100130001D3D0008213D0008253D0008293D00081F
:100140002D3D0008313D0008353D0008393D0008CF
:100150003D3D0008413D0008453D0008C53A000806
:10016000493D00084D3D0008513D0008553D00083F
:10017000593D00085D3D0008613D00080000000099
:10018000653D0008693D00086D3D0008713D0008AF
:10019000753D0008793D00087D3D0008813D00085F
:1001A000853D0008893D00088D3D00082DE9F0419E
:1001B000DFF84018DFF840482DED108B884282B000
:1001C00004F1840540F06181A868401CA8600A2100
:1001D0004FF00A08B0FBF1F108FB110010B9E86814
:1001E000401CE860DFF814180F682868C01B00F096
:1001F00051FC00F0F3FB41EC180B03D200F0F2FBD2
:1002000041EC180B51EC180B0122DFF8F43700F029
:1002100053FC98BF0027C4F88070DFF8E877F869CE
:100220000168D4F88000090901F00101217000F093
:1002300031FCDFF8D427DFF8D43700F055FC00F0AC
:1002400025FD0646A6804FF47A71387E7A7E10FB33
:1002500001F1642012FB0010B97E11FB0800F97E49
:10026000084400F53C50B0306080B6B280B200F077
:100270002BFDDFF89C27DFF89C3700F035FC41ECC4
:100280001B0B84ED04BB00F001FD332E686094ED80
:10029000148B94ED169BC0F2DA80304600F014FD0A
:1002A00041EC1A0B53EC1B2BDFF86C07DFF86C17D3
:1002B00000F01AFC41EC1B0B286968B900F0F3F858
:1002C00000F008F9C4E91C0100F0E7F800F002F9B9
:1002D000C4E91E010120286100F0E5F800F0FAF8F9
:1002E00002460B46D4E91C0100F0FCFCC4E90801FD
:1002F00000F0D3F800F0EEF802460B46D4E91E01F8
:1003000000F0F0FCC4E90A0194ED08AB9FED6BCB63
:1003100053EC1A2B51EC1C0B00F0E6FB41EC1E0BCE
:1003200094ED0ABB84ED0CEB53EC1B2B51EC1C0B36
:1003300000F0DAFB41EC100B84ED0E0B53EC102BAC
:10034000DFF8DC06DFF8DC1600F0CEFB41EC1D0B1D
:1003500053EC1E2BDFF8D006DFF8D01600F0C4FBFC
:1003600041EC1E0B53EC1D2B00F0BCFC9FED55FB2C
:1003700053EC1F2B00F0B8FB41EC1C0B53EC1E2B75
:1003800051EC1D0B00F020FD53EC1F2B00F0ACFBDB
:100390000022002341EC1D0B51EC1C0B00F0D0FDA2
:1003A00084ED18CB84ED1ADB9FED48EB38D2BA749C
:1003B0000122DFF87C3681F0004100F07DFB41EC4A
:1003C0001C0B35D900F08CF800F090F841EC190BBB
:1003D00051EC1D0B00F002FB84ED10CB2DD281F00F
:1003E000004141EC1D0B0120B871012251EC1D0BA5
:1003F00000F05FF826D900F073F800F077F841ECD0
:10040000190B84ED12DBD4E9120100F03FFC10FB64
:1004100008F6D4E9100100F039FC10FB08F018E0F0
:100420000120B874012251EC1C0B00F042F8C9D82D
:10043000B0EE4ECAF0EE6ECACAE7BA71012200F001
:1004400038F8D8D8B0EE4EDAF0EE6EDAD9E70026FA
:1004500000202081E68084ED169B84ED148BE088DB
:100460003872010AF97120893875010AF974384621
:1004700000F0A7FA07F10C0000F0A3FAA08800F042
:1004800023FCC4E906010120F86502B0D4F880001D
:100490002860BDEC108BBDE8F081B0EE4B0AF0EEA9
:1004A0006B0A00F06DBDB0EE4B0AF0EE6B0A00F087
:1004B00061BDDFF87C3500F0FFBA00009A99999988
:1004C0009999D9BFF294D5743D19234000000000DA
:1004D0000000594051EC100B53EC1A2B00F004BBF8
:1004E00053EC182B51EC1A0B00F06EBC41EC180BBE
:1004F00053EC192B51EC1B0B00F066BC2DE9F043BB
:100500008BB000F043FD00F04CF900F093F90020AF
:1005100000900022DFF81C05DFF81C450168DFF8B9
:10052000D49441F4800101600021006800F480004F
:10053000009004F130050098382000F05DFD38206F
:1005400000F077FDDFF8F404A86180210120E86164
:100550008DF80110002028858DF800008DF803002B
:10056000ADF8040028636863E1214FF40000A8633C
:100570008DF80210C5F82CD004F1480000F092FD6F
:1005800002A8242100F078FF0FF2F8400021D0E902
:100590000067CDE90067DFF8A804DFF8686403911D
:1005A000F0610591002030627062069146F276603B
:1005B000B06207910020F0623063706309910120FE
:1005C0000290049008900A9106F11C0002A900F024
:1005D0008EFF002000900190694606F11C0001F09A
:1005E000FFF804F59367DFF85C0438644FF4E138F2
:1005F0000020B864F8643865C7F844800C2078653A
:100600000020B865F86504F59B6001F009F94FF02A
:10061000A04028660021042068660220E8660020C9
:1006200028670220A8670120E86704F1B000016094
:1006300041600121C1600021016104F1900001F0DD
:10064000E5FB0FF24842D2E90001CDE90001DFF8F5
:10065000F823C9F8002042F2CF00C9F804000020B6
:10066000C9F808006320C9F80C000020C9F8180078
:10067000484600F005FF002000900190694648467A
:1006800001F0AEF86846102100F0F6FEDFF8BC037A
:1006900020604FF4803060600020A0600120206165
:1006A0002076002084F82000E062DFF8A403A06236
:1006B0000020E0600520E061012028706061204694
:1006C00001F00AFC05200090012106200191029012
:1006D0006946204601F028FC0620022100F05BF864
:1006E0000720032100F057F80820042100F053F8F8
:1006F0000A20052100F04FF804F5A364D5482060D6
:10070000C4F804800020A060E06020610C206061DB
:100710000020A061E061204601F082F8CE483860F8
:10072000C7F804800020B860F86038610C20786158
:100730000020B861F861384601F072F8FF230A2200
:10074000314600F025F8FF2300F01FF80120206457
:100750003C2106F11C0000F010FF484600F09DFE11
:100760000A23042206F11801384601F0EAF8F06D78
:100770000128F5D164230A22314600F009F86423E8
:1007800000F003F80020F065EAE70A2206F10C0108
:10079000204601F081B8009001912046694601F0A1
:1007A000C3BB80B592B006A8302100F065FE01A859
:1007B000142100F061FE00200090A848016841F07B
:1007C000805101600021006800F080500090009886
:1007D000A34800910121026842F4404202604FF4B4
:1007E000A022006800F4404000900098069102208A
:1007F0000C904FF480010D9104200E90A8210F91D0
:100800000220109007210792119106A801F0B6FC72
:100810000F20019002210020029103904FF4A0517B
:100820004FF4805004910590052101A801F01EFEAF
:1008300013B000BD2DE9F84386B06846142100F0DE
:100840001BFE00247B48874D874EDFF82092DFF89F
:100850002082884F05940168874C41F010010160A7
:10086000026802F0100205920022059905920368C1
:1008700043F004030360016801F0040100F094F800
:1008800043F020030360016801F0200100F08CF8C0
:1008900043F080030360016801F0800100F084F8F8
:1008A00043F001030360016801F0010100F07CF8EE
:1008B00043F002030360016801F0020100F074F8E4
:1008C00043F008030360016801F0080105910599F0
:1008D00005920421036843F040030360006800F0C0
:1008E000400005900598204601F075FF0022102178
:1008F000284601F070FF00224FF48141304601F09C
:100900006AFF00224021484601F065FF00224FF4B3
:100910000071404601F05FFF042000F04AF82046D5
:1009200001F076FE4FF4005000F038F8404601F038
:100930006FFE102000F03DF8284601F069FE4FF4EC
:10094000004000F02BF8204601F062FE4FF4814099
:1009500000F02FF8304601F05BFE402000F029F84F
:10096000484601F055FE802000210090019102913F
:100970004846694601F04CFE4FF4007000F019F84B
:10098000404601F045FE00220021282000F034FB03
:10099000282000F04EFB07B0BDE8F08300900197DF
:1009A00000200290694670470591059905920368F9
:1009B0007047009001210020019102900390694648
:1009C00070470021022201E0042A01D0835CC9188B
:1009D000521C0A2AF8DBC943017170470022002328
:1009E00000F0AEBA53EC182B0020244900F07CB87C
:1009F00000000000C8060020D005002024000140AF
:100A00000088C34000000020BA490C022B87863FB3
:100A10008E3BA583F57FB63F5F40D42247DF913FF1
:100A20002398B4F34762B13F09FCE1E7BF07BF3F3A
:100A30000000594030380240700000200080024021
:100A4000000001400048004000100040002201402A
:100A50000100000F001401400044004040380240F3
:100A600000700040000002400004024000180240F4
:100A70000008024000001110001002400000F0BF0A
:100A800070470000000000000000000000000000AF
:100A900000000000C11768B14840401AB0FA80F267
:100AA0009040D21CC907C2F5846241EA025202EBAF
:100AB000D0214005704700004FF4001C1CEB410F93
:100AC00094BF1CEB430F09E041EA030C50EA4C0CC5
:100AD00052EA0C0C03D28B4208BF8242704714BF0B
:100AE0009942904270470000B0B581EA030C0CF0C7
:100AF000004C40F2FF7515EA11541DBF15EA13575B
:100B0000AC42AF4239E0E41923EA455343F4801381
:100B1000C90241F0004141EA505EC7021100A7FB43
:100B2000020200284FF00000EEFB01204FF0000110
:100B3000E3FB072118BF42F00102401800214941A0
:100B4000E3FB0E01A4F580640F0302D25200404182
:100B5000494154F101046CDD470872F1004250F143
:100B6000000051EB0451A1F580115CBF41EA0C017A
:100B7000B0BD4CEA05510020B0BD05EA1357AC42A8
:100B800014BFAF4241E050EA410E1CBF52EA430E8F
:100B900002E061460020B0BD24423C441BD15FEA24
:100BA000070EF6D0090302BF01460020AEF1140E75
:100BB000B1FA81F7AEEB070401FA07FE0C37C7F173
:100BC000200100FA07F7C8404EEA000E23EA455319
:100BD00043F48013A2E733F00043B3FA83F704BF72
:100BE000B2FA82FE77440B3FE41BB7F1200E2FBF11
:100BF00002FA0EF3BB40C7F1200E22FA0EFE38BFF8
:100C000043EA0E03BA40641C82E750EA410E14BF67
:100C100052EA430E6FF000014FF4001717EB430F39
:100C20008ABF194617EB410FB5E74CEA0551002082
:100C3000B0BDD4F10104B4F120070FDAC4F12007EC
:100C4000520828BF42F0010210FA07F501FA07F72F
:100C5000E1BF2A43E0403843E1400FE0352C98DC07
:100C6000C7F1200452EA400220FA07F218BF42F00E
:100C7000010231FA07F0A1400A43002172F100425B
:100C800050F1000051EB0C01B0BD0000C1F30A535C
:100C900040F2FE329B1A14DDD3F120034FEAE172D9
:100CA00008DDC90241EA505141F00040D8408018A7
:100CB0005040704703F2E13010B1D24382F000405F
:100CC0007047002070470000014648B1B0FA80F13B
:100CD0008840C91CC1F58461090501EBD02140059C
:100CE0007047000070B44FF0004591EA030F40F1E7
:100CF00073806B40841A71EB030603D2001BB14171
:100D0000121973414FF4001C1CEB410F34BF7CEBF4
:100D1000430442E00C0DA4EB1356352E4FDC45EA9C
:100D2000C323DB0A45EAC121C912B6F120050DDD56
:100D300063FA05F6EB4086EA0305124218BF45F058
:100D40000105C01851F100010CD213E062FA06F55A
:100D5000F2405540F3415A40B340F3405A408018A6
:100D6000594107D349085FEA30005FEA350528BFDB
:100D700045F0010501F58011420875F1004250F17E
:100D8000000041EB04514E0016F5001F70BC38BF47
:100D900070470020090D090570471CEB410F10D268
:100DA00052EA43060BD0BCEB410F05D80C0DAB4308
:100DB000661E342EB6DD02E0AB438018594170BC8C
:100DC000704770BC7047000070B44FF0004591EA66
:100DD000030F7FF58FAF6B40841A71EB030604D2CB
:100DE0006E40001BB141121973414FF4001C1CEB03
:100DF000410F34BF7CEB430682E00C0DA4EB13568D
:100E0000362E7BDC012E45EAC32341DC43EA5253F4
:100E100012BFD20292025B08240545EAC12141EAD1
:100E20005051D2EBC020994125D407D1B0FA80F6B9
:100E300010FA06F162D00020203608E0B1FA81F6FF
:100E4000B140C6F1200220FA02F21143B0404FEA4D
:100E5000F474B4EB465434F001064FEA74040AD833
:100E6000D6F50016760D04F00044F04061FA06F263
:100E70005040F1404840C00A40EA415021F0004152
:100E800028BF5FEA500550F1000044EBD12135E066
:100E9000DB0A45EAC121C90AB6F120050EDD42EAA6
:100EA0000242120CC5F1200603FA06F6EB4042EAB4
:100EB00006056D42984161F100010DE062FA06F508
:100EC000F240554063FA06FC82EA0C02F3405A40B5
:100ED0006D42904161EB030111F4801F05D1641E46
:100EE000620502D06D004041494121F48011430860
:100EF00075F1004350F1000041EB045170BC7047A4
:100F00001CEB410F15D223F0004352EA43060BD0ED
:100F10004FEA4C0CBCEB410F04D80C0D661E342E6E
:100F2000B7DDEBE7801A994150EA410608BF00217E
:100F3000E4E708BF1CEB430F28BF6FF00001DDE7BB
:100F40004FF4001C1CEB410F94BF1CEB430F09E056
:100F500041EA030C50EA4C0C52EA0C0C03D29942C1
:100F600008BF9042704714BF8B428242704741ECE9
:100F7000100B01BD80B551EC100B01F07DFEF6E7C2
:100F800080B551EC100B01F079FEF0E780B50B480D
:100F9000016841F400710160026842F480620260FD
:100FA000016841F480710160032000F018F800200E
:100FB00001F066FE01F084FE002002BD003C02400C
:100FC0000901020081B002D42F48815405E02F4866
:100FD00002F00F02104400F8041C01B070472C4AC4
:100FE00013684FF6FF0100020B4000F4E060184365
:100FF000284908431060704738B5254B1C68C4F376
:101000000223C3F10704052C28BF04241D1D072D4E
:1010100034BF0023DB1E012505FA04F4641E2140C1
:10102000994005FA03F35B1E1A401143BDE83440B2
:10103000C6E7002807D4012200F01F01164B8A40A2
:10104000400943F82020704710B5401EB0F1807F62
:1010500001D3012010BD114C60600F214FF0FF3013
:10106000FFF7AEFF0022A26007202060002010BD25
:10107000002807D4012200F01F01094B8A404009D3
:1010800043F820207047000000E400E018ED00E085
:101090000CED00E00000FA0500E100E010E000E0E7
:1010A00080E200E02DE9FC410446002000900CB9EC
:1010B0000120B2E004F14405287820B900216970CC
:1010C000204601F074FE002001904FF48056DFF8B6
:1010D0007003016841F48041016040F2F518006836
:1010E000DFF8601300F48040019001980A6822F450
:1010F00000020A600B68206A03430B602068815974
:1011000041F00101815102F017F80746206881592A
:10111000CA0740F1848002F00FF8C01B4045F5D3A8
:1011200003208FE0DFF82013DFF820230918914215
:1011300038BF46F00C0621BFDFF814231218DFF881
:1011400014138A420AD3DFF81013DFF8103308189B
:10115000984234BF46F0040646F010062068066147
:101160004FF4004200F07AF8002847D1FF2001F048
:10117000E9FF6068002837D001F0DEFF074641F242
:10118000893600F067F801F0D7FFC01BB04256D295
:1011900000984107F5D54FF4805200F05FF868BB26
:1011A00001F0CAFF074600F055F801F0C5FFC01B6B
:1011B000B04244D200988106F5D56A461F212046E8
:1011C00000F04FF8D0B90098C10647BF4FF4006156
:1011D000E1600020E0600098410759BF4FF4804073
:1011E000A0600021A16012E0A068E268C003520381
:1011F000000C40EA124200F031F820B100F027F86C
:101200000120287009E040F6FF7001F09BFF0021EB
:1012100000F01EF8012028700020BDE8F681066964
:1012200001F0A9F9DFF83812DFF8382209189142E5
:1012300026F01C06BFF476AF46F008068EE700F0F5
:1012400006F801202870002068700320E5E70121DE
:1012500020467FE06A460121204602E00021204628
:101260003BE02DE9F041044604F144060F46307896
:101270008228154608BF02202DD082213170BF017F
:1012800020680169228AD20201F01C0102F478422E
:10129000114307F4F8670F4347F00107076101F0B6
:1012A0004BFF804601E020680769F8070CD501F084
:1012B00043FFA0EB0800B0F5803FF4D3012030706D
:1012C00000207070032006E02068416989B229601F
:1012D000002001213170BDE8F081F8B5044604F129
:1012E00044050E462878422801D10220F2BD422151
:1012F000297092B220680169238A4261DB0201F001
:101300001C0103F47843B601194306F4F86620681B
:101310000E4346F00306066101F00EFF074601E0AA
:1013200021680E69F00709D501F006FFC01BB0F572
:10133000803FF5D300F006F80320F2BD01202870AD
:101340000020F2BD01202870002068707047012045
:1013500001F0F8BE38B5044629B14FF40060E060F2
:101360004FF48040A0602268E069136800280CBF39
:101370004FF4806100213C480340A0680343E068CB
:101380000343194341F4007111600120156801F015
:10139000D9FE20680560402141604568FFF7D7FF0E
:1013A00021684D6000208860C8604FF641708A69EE
:1013B000024042F080028A6101208D6901F0C2FE84
:1013C000206885610021C161C569FFF7C0FF216800
:1013D0002648CD6141F218028B58034043F0087350
:1013E00043F004038B5001208D5801F0ABFE2068C0
:1013F0001F4900F58050856101600568FFF7A7FF70
:10140000206800F580500560A169012905D1C269F5
:1014100042F4803242F04002C2616069427903794D
:10142000144943EA02230B608378C2781B0443EA21
:1014300002634278007843EA022303434B6031BDE4
:10144000443802400438014040F1E9FD40787D0114
:1014500000796CFC005A6202001F0AFA80F0FA025E
:1014600000D3CEFEC0E1E4000F8120FF233FDEF871
:101470008020C10240800240002201F077BE0000BF
:1014800038B5040001D1012032BD00F024F818B9AC
:1014900000F01DF801F042FD0FE00068C16841F066
:1014A0000101C160816801F00701062903D00168CC
:1014B00041F0010101600020704702206870211D89
:1014C000206800F01DF901206870002032BD002165
:1014D00029702046704704F13C0568787047C16068
:1014E00001223068016841F0010101607047F8B5E0
:1014F00004000E4601D10120F2BDFFF7ECFF18B940
:10150000FFF7E5FF01F0D0FC022068702168DFF8EA
:10151000E4018A6802408A60211D206800F0F0F82A
:101520002168DFF8D4018A688F690B6A0740B068C8
:101530000743B06947EA0027DFF8C0010740F068B9
:101540000743F06947EA0027306947EA0017306A25
:1015500047EA0037706823F0AA030343706943EA3F
:101560000013306802438A60206887610120216887
:101570000B6268700020F2BD000010B5044609B18E
:10158000042901D1012203E000F00BF8012204211B
:10159000206800F017F9FFE72068FFF7A3FF00209D
:1015A00010BD20680122002100F00CB910B50446DE
:1015B000206801698A0715D5C1688A0712D56FF0BE
:1015C0000202026101212177806910F0030F204699
:1015D00002D001F0E4FD03E001F0E2FD00F087F845
:1015E00000202077206801694A0715D5C1684A079D
:1015F00012D56FF00402026102212177806910F494
:10160000407F204602D001F0CAFD03E001F0C8FD92
:1016100000F06DF800202077206801690A0715D5D1
:10162000C1680A0712D56FF0080202610421217710
:10163000C06910F0030F204602D001F0B0FD03E0B6
:1016400001F0AEFD00F053F800202077206801691A
:10165000CA0615D5C168CA0612D56FF0100202611C
:1016600008212177C06910F4407F204602D001F0A4
:1016700096FD03E001F094FD00F039F8002020779A
:1016800020680169CA0708D5C168CA0705D56FF087
:10169000010202612046FEF789FD206801690A0601
:1016A00008D5C1680A0605D56FF0800202612046A0
:1016B00001F077FD206801694A0608D5C1684A062D
:1016C00005D56FF040020261204601F06BFD2068F5
:1016D00001698A060AD5C1688A0607D56FF020021B
:1016E00002612046BDE8104001F05DBD10BD2046FE
:1016F00001F05ABDF8BFFFFFFCFCFFFF0303FFFF33
:10170000F0B5254C0568254B254E264FDFF898C0CF
:10171000A04218BFB0F1804F07D0604518BFB84253
:1017200003D0B04218BF98420DD14A6825F0700529
:101730001543A04218BFB0F1804F17D060451CBFC1
:10174000B842B04212D098421CBF184A90420DD005
:10175000174A90421CBF174A904207D0164A90423F
:101760001FBF164A9042164A904203D1CA6825F418
:10177000407515434A6925F0800515430560A04270
:101780008A68C2620A68826212BF9842096901636C
:1017900001214161F0BD0000000001400004014052
:1017A000000C0040000800400004004000400140E0
:1017B000004401400048014000180040001C004067
:1017C0000020004010B501F01F01036A01248C4085
:1017D000A343036202FA01F1036A1943016210BDD7
:1017E00070B500F13C031A78012A01D1022070BDC6
:1017F00001241C7002225A7004686568A6684A6851
:10180000096825F070050D43656026F080060068C4
:1018100016438660012159700020187070BD0000C9
:1018200038B5040001D1012032BD00F022F808B91A
:1018300000F023F800F013F800F024F8FFE741610E
:1018400000F001F832BD2068C16841F40051C16068
:101850000020686020206870A87000207047242055
:1018600068702068C16821F40051C160204600F012
:101870000ABA04F1380568787047002129702046BB
:1018800001F067BB2068016921F490410161206883
:10189000416921F02A0170472DE9F843054605F119
:1018A00038070C4678782028164698463CD1002CFC
:1018B00014BF002E012038D03878012834D00121FF
:1018C0003970212000217960787001F035FCAE84F8
:1018D0008146EE8403E0296814F8010B4860E88C27
:1018E00028B3E98C481EE8844B46A868CDF80080F0
:1018F000B0F5805F0DD100F081F870B920882968BB
:10190000C0F3080048602869002814BF641CA41CA8
:10191000E5E700F073F80028DDD0032005E0202083
:1019200078700020387000E00220BDE8F283CDF826
:1019300000804B460022402100F062F80028EED0E3
:10194000EBE72DE9F843054605F138070C46B87872
:1019500020281646994649D1002C14BF002E01209C
:1019600045D03878012841D001213970222000214A
:101970007960B87001F0E0FBAE858046EE8505E049
:1019800028684168C1F3080124F8021BE88D80B380
:10199000E98D481EE8854346A868CDF80090B0F56B
:1019A000805F0ED10022202100F02AF870B928694A
:1019B0000028E5D02968486800F0FF0024F8010BF2
:1019C000E4E70022202100F01BF808B103200EE01C
:1019D000286920B92968486804F8010BD6E7286807
:1019E000416801F07F0104F8011BCFE70220BDE848
:1019F000F2832020B87000203870F8E700228021A0
:101A00002846AEE0416921F040014161606B7047BA
:101A100038B5044625682968EA686B6911F00F003B
:101A200007D188065DD590065BD52046BDE83240DB
:101A3000DEE0D80702D412F4907F52D0C80705D553
:101A4000D00503D5E06B40F00100E063480705D501
:101A5000D80703D5E06B40F00200E063880705D5A6
:101A6000D80703D5E06B40F00400E063080705D514
:101A7000D80703D5E06B40F00800E063E06B002876
:101A80006ED0890604D5900644BF204600F0B0F819
:101A900020684069E16B0A0701D440061BD5204647
:101AA00000F091F8206841694A060FD5FFF7AAFFB8
:101AB00060B10FF231110165606B01F0EAFB0028A3
:101AC0004ED0606B016DBDE8344008472046BDE84C
:101AD000324001F0E3BC204601F0E0FC0020E0636E
:101AE00031BD08062CD510062AD594F839002128D6
:101AF00036D1A168206AB1F5805F0DD10188C1F3AC
:101B000008016960206918B9216A881C206207E011
:101B1000206A411C216203E0411C21620078686058
:101B2000E08C401EE08480B2D0B92068C16821F00A
:101B30008001C1602068C16841F04001C16031BDD1
:101B400048060DD550060BD5E86820F04000E86047
:101B5000202184F839102046BDE8324001F09FBCB6
:101B600031BD2DE9F041069C05460E4690461F46C4
:101B7000286801683140B1420CBF01200020404577
:101B800017D114F1010FF3D024B101F0D5FAC01B25
:101B90008442EDD22868C16821F4D07100F00CF8BD
:101BA00005F138002021417081700021017003206F
:101BB00000E00020BDE8F081C16028684169490863
:101BC0004900416170470168CA6822F49072CA6096
:101BD00001684A69520852004A61202180F83A108F
:101BE00070470000806B0021C185C18401F056BCA4
:101BF00080B590F83A10222943D18268B2F5805F0F
:101C000014D1826A016941B903685968C1F30801B6
:101C10001180826A911C816218E001684B6803F0B0
:101C2000FF031380816A4A1C82620FE00169002968
:101C3000816A04D14A1C82620268536805E04A1C2A
:101C400082620268536803F07F030B70C18D491EE6
:101C5000C18589B299B90168CA6822F02002CA60B8
:101C60000168CA6822F48072CA6001684A69520831
:101C700052004A61202180F83A1001F011FC002046
:101C800002BD022002BD2DE9F0470446642521680B
:101C90000A69E06822F4405202430A611926CA68C0
:101CA00048480240A0680243206902436069024339
:101CB000E0690243CA604A69A06922F440720243A3
:101CC0004A61E3694048414AB3F5004F3BD1914234
:101CD00018BF814210D100F059FC074600F056FCB5
:101CE000804600F053FC814600F050FC06FB09F9E9
:101CF000824600F04BFC0FE000F040FC074600F08D
:101D00003DFC804600F03AFC814600F037FC06FBC3
:101D100009F9824600F032FC6168490000F058F889
:101D2000DB003233B3FBF5F35B00B2FBF5F203F4F7
:101D3000F87300F05BF8ED0032356420B5FBF0F08D
:101D400000F0070037E0914218BF81420ED100F049
:101D50001DFC074600F01AFC804600F017FC814687
:101D600000F014FC824600F011FC0DE000F006FCCF
:101D7000074600F003FC804600F000FC814600F0BE
:101D8000FDFB824600F0FAFB06FB09F96168890059
:101D900000F01EF81B013233B3FBF5F3B2FBF5F292
:101DA00003F0F00300F022F82D0132356420B5FB7A
:101DB000F0F000F00F002168C3188B60BDE8F087D9
:101DC00000000000F369FFFF001401400010014013
:101DD0007743B7FBF1F206FB08F7B7FBF1F3B9FB6A
:101DE000F1F7B7FBF5F705FB1733704703EB021369
:101DF00006FB0AF74643B7FBF1F2B6FBF1F06421AC
:101E0000B0FBF1F005FB10257047000070B5040031
:101E10008AB049D0266804F56F75687820B900212A
:101E20002970204601F028F903206870F06BC10585
:101E30005CBF00212161206801F072FB83B000F0DB
:101E40003FF80EBC206801F02DFB58BB2068002134
:101E500001F06CFB00211C200AE010FB01F222447F
:101E60003C32012353701170D180002300F02DF813
:101E700062689142F1D3002109E010FB01F2224493
:101E800002F5FE7200231170537000F01EF86268B4
:101E90009142F2D383B000F013F80EBC206801F039
:101EA00059FB18B102206870012007E084F838005F
:101EB00001206870206801F024FC00200AB070BD89
:101EC000211D6846342201F051BC491CD370936037
:101ED000D3605361C9B2704770B5044600250CB990
:101EE000012070BD04F13C06706820B9204600F066
:101EF00002FFB56035707068C10610D4706820F4B8
:101F0000885040F002007060204600F0AEF8B560E6
:101F1000706820F0020040F00100706000E00125D0
:101F200000203070284670BD78B502460020009031
:101F300092F83C30012B01D1022072BD012082F8C1
:101F40003C0007240B6810680A2B12D30A3BC568B3
:101F500003EB43039C4025EA0404C460C3680D6896
:101F60008C68A5F10A0606EB4606B4402343C3601D
:101F70000FE0056903EB430304FA03F325EA0303C7
:101F8000036103690D688C6805EB4505AC4023438C
:101F900003611F244B68072B0CD25B1E456B00F0BE
:101FA0005EF84463436B4D680C886E1E00F052F877
:101FB00043631BE00D2B0CD2DB1F056B00F04FF8C9
:101FC0000463036B4D680C88EE1F00F043F8036355
:101FD0000CE00D3BC56A00F042F8C462C36A4D686C
:101FE0000C88A5F10D0600F035F8C3625E4B9842EF
:101FF0002BD10B685B48122B07D1046824F4000432
:102000000460036843F4800303600B68594CA342E7
:1020100018BF112B19D1036823F4800303600568EE
:1020200045F4000505600868A0420ED150494F4CA8
:102030000B68B3FBF4F40A204443009402E00099D7
:10204000491E009100980028F9D1002182F83C1027
:10205000002072BD06EB8606B4402343704703EBB5
:1020600083039C4025EA040470473E4A116821F42A
:1020700040311160136841680B4313600268516876
:1020800021F4807151605168036941EA0321516074
:10209000516821F040715160536881680B4353606F
:1020A000916821F4006191609368C1680B4393606B
:1020B000816A314B994210D0936823F0706393602A
:1020C0009368816A0B439360916821F0405191605D
:1020D0009368C16A0B43936007E0916821F07061D7
:1020E0009160916821F040519160916821F0020166
:1020F00091609168037E41EA4301916090F820105D
:1021000069B1536843F400635360516821F460413E
:1021100051605168436A5B1E41EA433102E05168F5
:1021200021F400615160D16A21F47001D162D16A59
:10213000C3695B1E41EA0351D162916821F40071C9
:102140009160916890F8303041EA43219160916844
:1021500021F4806191609168406941EA8021916039
:1021600070470000042301400020014040420F005E
:102170006C000020120000100100000F2DE9F84350
:10218000040017D02078B54EC10741D5B06800F0E3
:102190000C00042807D0B06800F00C0008280BD110
:1021A0007068410208D53168880331D5606800281D
:1021B00040F0B68001204FE16068B0F5803F06D066
:1021C000B0F5A02F316807D141F48021316030682B
:1021D00040F48030306006E021F4803131603268B4
:1021E00022F480223260606868B100F0A5FF0546E5
:1021F0003168880300F1948000F09EFF401B652841
:10220000F6D3032028E100F097FF054630688103EC
:1022100040F1868000F090FF401B6528F6D3F0E780
:1022200000F08AFF401B022840F2A780E9E7E0683F
:1022300070B10121396000F07FFF054630688107E9
:1022400000F1CB8000F078FF401B0228F6D9D8E7D8
:10225000386000F071FF05463068810763D500F0F3
:102260006BFF401B0228F7D9CBE7086000F064FF42
:102270000546706F810775D500F05EFF401B022890
:10228000F7D9BEE70528306F06D140F0040030676B
:10229000306F40F0010005E0400840003067306FCB
:1022A00020F00400306741F28938A06868B100F07E
:1022B00043FF8146306F810700F19C8000F03CFFB6
:1022C000A0EB09004045F5D39BE700F035FF8146C0
:1022D000306F810740F18E8000F02EFFA0EB0900E7
:1022E0004045F5D38DE700F027FF401B022840F260
:1022F000968086E700F020FF001B022840F2A780AE
:102300007FE70020386600F017FF0446306881013F
:1023100040F1A18000F010FF001B0228F6D970E701
:1023200020784F4F81071BD5B06810F00C0F09D0F3
:10233000B06800F00C0008287FF479AF70684102A3
:102340003FF575AF3168880703D5E06801287FF451
:1023500031AF3168206921F0F80141EAC0013160F4
:10236000217808070DD560693E4900283FF47DAF0C
:1023700001220A6000F0E0FE0546706F81077FF5DC
:102380004FAF217848073AD5306C0025C1000AD4F8
:1023900000950125306C40F080503064306C00F0C6
:1023A000805000900098DFF8C080D8F80010C80571
:1023B0001BD4D8F8000040F48070C8F8000000F08A
:1023C000BBFE8146D8F80010C8050ED400F0B4FE5C
:1023D000A0EB09000228F5D913E73068216920F045
:1023E000F80040EAC1003060BAE7A06801287FF435
:1023F00049AF4DE71DB1306C20F080503064A069CA
:1024000048B3B16801F00C0108293FF4D3AE0228AB
:102410007FF477AF0020386600F08EFE0546306806
:1024200081013FF560AFE169206AA26A0143606AF9
:10243000520841EA8011521EE06A41EA024141EA33
:10244000006171600121396600F076FE0446306853
:1024500081017FF54FAF0020BDE8F28300380240D4
:1024600000004742800E4742007000402DE9F843CB
:1024700004000F4677D04A4E306800F00F00B84293
:1024800002D200F072F86ED12068464D810712D555
:10249000400703D5A86840F4E050A86021780807F9
:1024A00003D5A86840F46040A860A968A06821F03E
:1024B000F0010143A9602078C1074CD5606801286C
:1024C00002D129688A0305E0022818BF032803D136
:1024D00029688A0103D446E02A68910743D5A96890
:1024E000890840EA8100A86041F2893900F024FEA1
:1024F0008046A868616800F00C00B0EB810F2AD01C
:1025000000F01AFEA0EB08004845F2D3032020E0BB
:102510002078410705D5A968E06821F4E05101431E
:10252000A9602078010706D5A868216920F46040D9
:1025300040EAC100A86000F03FF8AA681A49C2F357
:102540000312895C194AC8401060002000F098FB13
:102550000020BDE8F283306800F00F008742D7D238
:1025600000F003F8D4D00120F3E73770316801F0B0
:102570000F01B94270470D48006870470B480C4A7C
:10258000006813680B49C3F3822206E00748084A33
:10259000006813680749C3F34232895CC84070473A
:1025A000003C024000380240783A00086C000020ED
:1025B00008380240303C000818B5124C606800F042
:1025C0000C00042802D0082802D019E00E4812BDE1
:1025D00000232268206841022068C0F388104CBFA5
:1025E00009490A4902F03F02A1FB000101F002F98A
:1025F0002168C1F30141491C4900B0FBF1F012BD53
:10260000024812BD0438024000127A000024F4008F
:102610002DE9F84F4FF0000E774A784BDFF8E08154
:102620004FF00F0906468A460121DAF8004001FA08
:102630000EF10C408C4240F0C680DAF80450022DB6
:1026400018BF122D4FEA8E0012D14FEADE0506EBBD
:10265000850C00F01C05DCF8207009FA05FB27EA60
:102660000B07DAF810B00BFA05F53D43CCF8205013
:102670004FEA4E0C032537689AF804B005FA0CF5BA
:10268000ED430BF0030B2F400BFA0CFB4BEA070753
:102690003760DAF80470012F18BF022F03D0112F12
:1026A00018BF122F13D1B768DAF80CB02F400BFA0D
:1026B0000CFB4BEA0707B760776827EA0101DAF8F5
:1026C0000470C7F3001707FA0EF739437160F16819
:1026D0000D40DAF8081001FA0CF12943F160DAF83C
:1026E0000410C9006FD50025009500F00C00D8F843
:1026F000001041F48041C8F8001009FA00F7D8F83A
:10270000005005F48045009500994FEA9E0153F86A
:10271000215025EA07073B4DAE4208BF00252CD0CB
:10272000394DAE4208BF012527D0384DAE4208BF13
:10273000022522D0364DAE4208BF03251DD0354DAF
:10274000AE4208BF042518D0334DAE4208BF052560
:1027500013D0324DAE4208BF06250ED0304DAE42EA
:1027600008BF072509D02F4DAE4208BF082504D069
:102770002D4DAE420CBF09250A2505FA00F038435D
:1027800043F82100E0431168DAF804500140ED03FA
:1027900048BF214311605168DAF804500140AD038D
:1027A00048BF214351609168DAF804500140ED02BE
:1027B00048BF21439160D1680140DAF804008002EB
:1027C00048BF2143D1600EF1010EBEF10F0F7FF61D
:1027D0002BAFBDE8F18F81B002B90904FFE7816139
:1027E00001B07047114A136803421CBF106000F02B
:1027F0001FB8704700000000003C0140083801404D
:102800004438024000000240000402400008024038
:10281000000C024000100240001402400018024068
:10282000001C02400020024000240240143C0140F1
:1028300070470000F8B52DED068B41EC180B1546DE
:1028400053EC182BDFF8A003DFF8A013FEF74CF9C8
:1028500041EC190B21F00041DFF89423DFF89433A9
:10286000FEF76EFB6AD253EC192B9FEDB90B03F008
:10287000004251EC100B0C46144353EC102B51EC5E
:10288000190B2346FEF7A0FAFEF700FA040051D018
:10289000FEF700F90022D84BFEF726F941EC190BA0
:1028A00053EC192B4FF0A040D449FEF71DF9024616
:1028B0000B4651EC180BFEF715FA06460F4653EC83
:1028C000192B4FF0C040CE49FEF70EF902460B46D9
:1028D00030463946FEF706FA06460F4653EC192BEA
:1028E0004FF00050C749FEF7FFF802460B4630464E
:1028F0003946FEF7F7F906460F4653EC192B002030
:10290000C149FEF7F1F802460B4630463946FEF75C
:10291000E9F906460F4653EC192B4FF00050BB491E
:10292000FEF7E2F802460B4630463946FEF7DAF982
:1029300041EC180B04F003046519BAE051EC180BD4
:1029400048004015401C51EC180B0DD148004015B3
:10295000401C02D1090340F04181BDEC068B4FF0D1
:10296000FF306FF00041F4BD21F0004100229142A0
:1029700008BF904205D1002D00F030819FEDBC8B47
:102980002CE153EC192B9FED720B03F0004251EC3C
:10299000100B0C46144353EC102B51EC190B23462F
:1029A0000026FEF711FA4B0043EAD0734200B3420F
:1029B00008BFB24241EC190B19D040F23344A4EBEA
:1029C0005352352A04DB00F0000001F000410CE016
:1029D000202A03DD203AD140914000E001D10020BF
:1029E00003E0012AA4BFD040904041EC190B51EC08
:1029F000190B20F0000231F0004308BFB24251D061
:102A000053EC192B00207C49FEF76EF841EC1A0BB1
:102A100053EC1A2B4FF0A0407849FEF765F80246B8
:102A20000B4651EC180BFEF75DF906460F4653ECCA
:102A30001A2B4FF0C0407249FEF756F802460B467B
:102A400030463946FEF74EF906460F4653EC1A2B30
:102A50004FF000506B49FEF747F802460B463046F0
:102A60003946FEF73FF906460F4653EC1A2B002075
:102A70006549FEF739F802460B4630463946FEF7FF
:102A800031F906460F4653EC1A2B4FF000505F49C0
:102A9000FEF72AF802460B4630463946FEF722F981
:102AA00041EC180B51EC190BFEF7F0F800F00300A5
:102AB000451951EC180B21F0004100224FF07953D9
:102AC000FEF73EFA05F0010405D2002C00F07E80EE
:102AD0009FED678B7AE053EC182B51EC180BFEF747
:102AE00003F8002C41EC190B36D053EC192B484855
:102AF0004849FDF7F9FF484A484BFEF765F953ECA2
:102B0000192BFDF7F1FF464A464BFEF75DF953ECF2
:102B1000192BFDF7E9FF444A444BFEF755F953ECF6
:102B2000192BFDF7E1FF424A424BFEF74DF953ECFA
:102B3000192BFDF7D9FF6FF051023F4BFEF744F917
:102B400053EC192BFDF7D0FF00223C4B3AE000BFBD
:102B5000000000000000E03F53EC182BFDF7C4FF1D
:102B600006460F4653EC192B35483649FDF7BCFF96
:102B7000354A364BFEF728F953EC192BFDF7B4FF15
:102B8000334A344BFEF720F953EC192BFDF7ACFF19
:102B9000314A324BFEF718F953EC192BFDF7A4FF1D
:102BA0002F4A304BFEF710F953EC192BFDF79CFF21
:102BB0002D4A2E4BFEF708F932463B46FDF794FFAF
:102BC00053EC182BFEF700F941EC180BA80705D5BC
:102BD00051EC180B81F0004141EC180B51EC180B33
:102BE000BDEC068BF4BD000083C8C96D305FE43FC7
:102BF0000000A0FFFFFFDF410000303EFB21B94194
:102C0000B410114026A6513E5C14D33C9A833B3B42
:102C100009260A1039BA213E3BA861C6F97D92BE49
:102C200063AC30909F01FA3EF6FB51166CC156BF63
:102C3000B10255555555A53FFFFFDFBF0000F03FDE
:102C4000B08F2FC310D8E53D8F0C73A1E1E55ABEBC
:102C50004DADE44FE31DC73E3EE3B519A0012ABFC9
:102C6000FAF010111111813F425555555555C5BF08
:102C7000000000000000F03F0122DBE50022D9E562
:102C800038B50D4D0D4A297804464FF47A70B0FBE3
:102C9000F1F11068B0FBF1F0FEF7D6F950B9102C45
:102CA00008D2002221464FF0FF30FEF7A5F9AC60B4
:102CB000002032BD012032BD600000206C000020E9
:102CC00081B0002000900022DFF82404416841F424
:102CD00080414160416801F4804100910099009277
:102CE000036843F080530360006800F08050009058
:102CF000009801B0704738B586B000F00AF9216835
:102D0000DFF8F023914250D100F0F8F8DFF8E853F3
:102D1000416941F480614161416901F48061009140
:102D200000990092036843F020030360016801F0FA
:102D300020010091009900924FF4F06100F0A4F896
:102D40000322006800F0040000F0DDF8029201A9FF
:102D5000DFF8A803FFF75CFC0120019003210020AD
:102D60000291039001A900F08BF8DFF8940328602A
:102D70004FF0806068600020A860E8604FF48060D9
:102D800028614FF4805068614FF48040A8614FF48F
:102D90008070E861002028626862284600F006FA28
:102DA00008B1FDF76DFEA563AC6307B030BD10B58B
:102DB00086B000F05CF92168DFF84823914259D1D0
:102DC00000200590DFF84003016841F000710160C8
:102DD000026802F0007205920022059905920368CC
:102DE00043F080630360016801F0806100F01AF92C
:102DF000036843F000630360016801F0006100F0C4
:102E000011F900F041F8016801F0040100F015F932
:102E1000036843F002030360016801F0020100F05F
:102E200001F93221036843F0400303600222006885
:102E300000F04000059005980091002002900321C9
:102E40000B2000F019F8862000F023F8DFF8BC0210
:102E5000FFF7DEFB4FF4005000F01BF8DFF8B00284
:102E6000FFF7D6FB4FF4205000F013F8DFF8A40270
:102E7000FFF7CEFB06B010BD0391049001926946A6
:102E8000DFF89402FFF7C4BB036843F00403036058
:102E900070470090022100200191029003210B2035
:102EA000039104906946704710B586B000F031F880
:102EB00021689A4A91421FD100F020F8416941F0FF
:102EC00001014161416901F0010100910099009205
:102ED0004FF42061036843F010030360022200688E
:102EE00000F0100000F00FF804900292012005900D
:102EF00001A98B48FFF78CFB06B010BD00200090A5
:102F000000228148704700900098019100200390B2
:102F10007047044601A81421FEF7AEBA0068814943
:102F2000884200D0704780B5002171480091026846
:102F300042F0100202600022006800F010000090D1
:102F400000983620FEF758F8BDE802403620FEF71C
:102F500070B810B586B000F08AF82168724A734CD8
:102F6000694891421AD100210591026942F4003268
:102F700002610022016901F4003100F05EF80821CD
:102F800000F069F800F052F8019269465F48FFF7D7
:102F90003FFB202002210090019113E0644A9142FE
:102FA00017D100210591026942F4802202610022BA
:102FB000016901F4802100F035F84FF4407100F010
:102FC0004AF8019200F032F869462046FFF720FBEC
:102FD00026E0584A914223D100210591426942F0EE
:102FE000200242610022416901F0200100F01AF83C
:102FF000C021FFF749FF0222006800F0040005909D
:10300000059800910120029003210820FFF734FF6A
:10301000002200214720FDF7EFFF4720FEF709F8C7
:1030200006B010BD059105990592704701200290E8
:10303000032107200391049070470591059905929B
:10304000036843F001030360016801F00101059189
:10305000059905927047036843F008030360022254
:10306000006800F00800059005980091704704463C
:1030700068461421FEF700BA38B586B0FFF749FF5D
:103080002168B1F1A04F31D100201F4C1F4D00909D
:103090000222216841F0010121604FF4E8512068CB
:1030A00000F00100FFF72FFF03210A200491059093
:1030B000029201A92846FFF7ABFA4FF400700021F5
:1030C000019002910391284601A9FFF7A1FA6068D7
:1030D00040F08000606000210091606940F4804011
:1030E0006061606900F480400090009807B030BDD6
:1030F00040380240002201406806002000140240CF
:10310000106402400080024030380240000002405B
:103110000004024000180240000802400000014084
:10312000001002400010004000440040000C02402B
:10313000004800400014014001484068704700BF4B
:103140006000002038B50446FFF7F6FF14F1010FC8
:10315000054602D0044801786418FFF7EDFF401BD4
:10316000A042FAD331BD00BF6000002000B500BF0F
:10317000130096469446103928BFA0E80C50FAD8A0
:103180005FEA417C28BF0CC048BF40F8042BC90748
:1031900028BF20F8022B48BF00F8012B00BD704764
:1031A0007047704770477047704700007CB5044611
:1031B000FFF7C2FF06460CB9012076BD04F13405C5
:1031C000002028700220687000F043F92168086828
:1031D000C20720D5FFF7B0FF801B0628F6D32020BA
:1031E0002862032015E0B0F5005F09D1032E42D814
:1031F000DFE806F00C0A0C02B1F1C07F3BD105E01C
:10320000022E03D9F61E36D1C80134D540202862DB
:103210000120687076BD0A68DFF824020240606809
:103220000243A0680243E0680243206902436069E8
:103230000243A0690243E0690243206A0243606AD4
:10324000042803D1E36A206B03431A430A6023680E
:103250005A69606AD208042840EAC2020BD1A66A01
:10326000E16A324339B1A0690028BCD1002E18BFF1
:10327000022EC9D0C0D35A61204600F0F5F8A96AE1
:103280003F228A408260002028620120687000206E
:1032900076BD90F83510022903D0802242650120C6
:1032A0007047052180F83510006801684908490019
:1032B0000160002070472DE9FC41044604F134060A
:1032C0000020604900904FF41650776A0A683D6804
:1032D000B2FBF0F8B06A082100F0B7F80ED0206811
:1032E000026853070AD5036823F004030360B06A39
:1032F0008140B960306A40F001003062B06A25FA5E
:1033000000F1C9070BD521684A69110607D50121CB
:1033100001FA00F0B860306A40F002003062042127
:1033200000F092F808D021680A68930704D5B860C5
:10333000306A40F004003062102100F085F81BD0A4
:1033400021680A68130717D5B860206801684A0326
:1033500007D5006801030BD5716969B1204688471C
:103360000AE00168CA0503D4026822F0080202607C
:10337000F16809B120468847B06A202100F065F85D
:1033800041D021680A68D3063DD5B86020687178BD
:10339000052920D1026822F01602026020684169E6
:1033A00021F080014161F168002904BF70690028A3
:1033B00004D02068016821F0080101603F22B06A52
:1033C0008240BA6000F04BF8F169002935D0204600
:1033D000BDE8FC41084701684A0307D500680103BE
:1033E0000DD4316979B1204688470CE00168CA05DF
:1033F00005D4026822F01002026000F030F8B168D3
:1034000009B120468847306AB8B1316AC8070ED57D
:103410000520707000F01DF820680099491C88454F
:10342000009102D30168CA07F7D400F018F8B16917
:1034300019B12046BDE8FC410847BDE8F381000012
:103440003F8010F06C000020B06A01FA00F00542E5
:1034500070472068016849084900016070470020F2
:10346000307001207070704781B0016801F0FF0278
:10347000103A1823B2FBF3F20FF218039B5CC365FA
:10348000890A8902042A28BF091D8165084601B0FE
:1034900070470000000610160006101670477047AF
:1034A000704700000EB418B504460898012817D1DB
:1034B000A16BDFF8900221F48031A163E168014043
:1034C000E160E06820F44010E0600F98012803D12B
:1034D000E16841F48011E160204600F01EF911E03E
:1034E000E06840F04000E060204600F016F90C99DA
:1034F00021B9A26B42F48032A26303E0A16B21F4F4
:103500008031A1630699012907D1A26842F0060221
:10351000A260A16841F02001A16012BC5DF810FB1F
:1035200081684908490081600020704780B5C26801
:1035300022F0C0420129C26005D1C16841F00051AA
:10354000C1603220E5E019B9C16841F08041F7E778
:10355000012002BD0EB42DE9FC43054604464FF0A0
:1035600000090021002004EB8102491C0F29C2F848
:103570000401F8D3DDF84C80B8F1000F02D100F05F
:10358000E3F806E0216821F400112160A06B40F40B
:103590000020A063002105F5606005F5006701606B
:1035A000386838600E98012803D10B9810B10121BA
:1035B00000E00321204600F09CF81021204600F096
:1035C0007CF808B14FF00109204600F085F808B1F9
:1035D0004FF00109002038617861F86105F5106647
:1035E0004FF67F334FF0904C4FF0006E2A4605E0C7
:1035F00000250D6000250D618B60401C09998842F3
:1036000024D202EB401101F510610D68002DEFD5B9
:1036100000280CBFC6F800E0C1F800C0EAE70026A9
:103620000E6000260E618B60401C0999884211D201
:1036300002EB401101F530610E68002EEFD5002835
:103640000CBFC5F800E0C1F800C0EAE7002002F5B1
:103650003065EAE7386920F4807038610C980128F9
:1036600008D1DFF8FC103963396B41F4803141F047
:10367000030139630022A2616FF08041616118B9D2
:10368000A06940F01000A061A169DFF8D8000143F3
:10369000A1610F9818B1A16941F00801A161B8F1C9
:1036A000010F05D1A06940F0804040F00400A06106
:1036B0004846BDE8F6035DF810FB890141F02001A2
:1036C0000161DFF8A410491E04D002699306FAD400
:1036D000002070470320704710210161DFF8881037
:1036E000491E04D00269D306FAD400207047032093
:1036F000704700F5006002681143FFE70160002099
:10370000704780B500F50060416841F002014160FA
:103710000320FFF717FD002002BDDFF84C20114603
:10372000491E0DD00369002BFAD5016941F0010152
:103730000161521E04D00169CB07FAD40020704702
:1037400003207047BFFFBDFFA06B40F40010A063D3
:10375000A06B20F40020A063A06B20F480207047B1
:103760000001800000383C80410D0300103A07D36F
:1037700030B4B1E83810103AA0E83810F9D230BCB3
:10378000530724BFB1E80810A0E8081044BF51F85F
:10379000043B40F8043BD20724BF31F8022B20F849
:1037A000022B44BF0B7803707047121F17D35B00C6
:1037B00009D151F8043B20F8023B1B0C121F20F8E2
:1037C000023BF6D20BE051F8043B00F8013B1B0A28
:1037D00020F8023B1B0C121F00F8013BF3D238BF4C
:1037E000121D521E24BF11F8013B00F8013BF8D80E
:1037F00070470000B3BBD9B1B2F5803F7DD2022A39
:103800001ED98C46B1FBF2F102FB11C31B0443EA43
:103810001043B3FBF2FC02FB1C3380B240EA0343CB
:10382000B3FBF2F002FB103240EA0C400023704779
:10383000022A05D98446B0FBF2F002FB10C27047A1
:103840004AB105D100F0010249085FEA3000704733
:1038500000220023704700F0E5B80B0002000021B1
:1038600000207047904271EB030CF6D3B3F5803F14
:103870002FD2F0B5B3FA83F7B1FA81F4A7F10F0EA6
:103880003D1B5340CEF1200602FA0EF2F3415340A5
:10389000B5F10F0746D80F3C2C444140C4F1200637
:1038A000A040F1414140B1FBF3F603FB1611A2FB2E
:1038B0000645001BA94102D2761E8018594180EAB4
:1038C000010221FA0EF362FA0EF200215A4030464C
:1038D000F0BD30B4B1FBF3FC03FB1C11A2FB0C45A3
:1038E000001BA94103D2ACF1010C8018594130BC36
:1038F00002460B46604600217047B2F1807F65D3D7
:10390000F0B5B2FA82F7B1FA81F4C7F10F063D1BA8
:1039100022FA06F307F1110EF24120355A40B5F1B3
:103920000F07B8D94140C4F12006A040F141414001
:10393000B1FBF3FC03FB1C11A2FB0C45001BA941CE
:1039400003D2BCF1010C801859410F2F12D30F3F45
:10395000C90341EA5041B1FBF3F603FB1611A2FB88
:103960000645D4EBC030A94102D2761E80185941D9
:1039700046EACC3C07B34140C7F12006B840F141CC
:103980004140B1FBF3F603FB1611A2FB0645001BF9
:10399000A94102D2761E8018594180EA010221FA1B
:1039A0000EF3C7F1200462FA0EF20CFA07F05A4047
:1039B0002CFA04F13043F0BD80EA010221FA0EF343
:1039C000002162FA0EF260465A40F0BD8C46B1FB0F
:1039D000F2F102FB11C31B0243EA1063B3FBF2FCDA
:1039E00002FB1C331B024CEA002043EA1063B3FBCA
:1039F000F2FC02FB1C331B024CEA002043EA10637A
:103A0000B3FBF2FC02FB1C331B024CEA002043EA2E
:103A10001063B3FBF2FC02FB1C324CEA00200023D3
:103A200070470000704700000E48016841F47001C3
:103A3000016000220C49086840F0010008608A60BB
:103A40000A480A6802400A6000220948486008687B
:103A500020F480200860CA604FF0006005490860CB
:103A60007047000088ED00E000380240FFFFF6FEDE
:103A70001030002408ED00E000000000000000000D
:103A800001020304060708097047FEE7FEE7FEE7A8
:103A9000FEE770477047704700F01EB880B52820D9
:103AA000FDF7E6FA4FF40050FEF79CFEBDE8024039
:103AB0004FF40040FEF796BE0448FDF777BD04487A
:103AC000FFF7F9BB0348FDF7A3BF0000C8060020BD
:103AD000680600208805002002484168027889189D
:103AE000416070476000002019E050F8042BD307B4
:103AF00044BFA9F101039A18091F0023042942F8C1
:103B0000043BF9D25FEA817C134604D54FF0000CE8
:103B1000A2F800C09B1CC90744BF0021197050F8CF
:103B2000041B0029E1D1704730B501688468421850
:103B3000416802EB5103C9070BD54C4409E012F967
:103B4000011B12F8015B002904F8015B05D5491C33
:103B5000F9D19A42F3D10C3030BD491EF1D5F8E7C6
:103B600010B5074979441831064C7C44163404E0FA
:103B70000A68081D114488470146A142F8D110BDCA
:103B80002C000000480000004EF68851CEF20001E3
:103B9000086840F470000860BFF34F8FBFF36F8F69
:103BA0004FF00070E1EE100A704700003DFFFFFF8C
:103BB0009806000070000020000000006DFFFFFF6D
:103BC000D00100004A0000000000002000F00DF8C5
:103BD000002801D0FFF7C4FFAFF300800020AFF34F
:103BE0000080FCF78BFC00F002F80120704700F029
:103BF00001B800000746384600F002F8FBE7000075
:103C000080B5AFF30080024A11001820ABBEFBE77D
:103C1000260002000148804701480047293A000871
:103C2000253C0008AFF30080FFF7AEFFFFF7CEFFA3
:103C30000000000001020304FFF7FEBFFFF7FEBF14
:103C4000FFF7FEBFFFF7FEBFFFF7FEBFFFF7FEBFA8
:103C5000FFF7FEBFFFF7FEBFFFF7FEBFFFF7FEBF98
:103C6000FFF7FEBFFFF7FEBFFFF7FEBFFFF7FEBF88
:103C7000FFF7FEBFFFF7FEBFFFF7FEBFFFF7FEBF78
:103C8000FFF7FEBFFFF7FEBFFFF7FEBFFFF7FEBF68
:103C9000FFF7FEBFFFF7FEBFFFF7FEBFFFF7FEBF58
:103CA000FFF7FEBFFFF7FEBFFFF7FEBFFFF7FEBF48
:103CB000FFF7FEBFFFF7FEBFFFF7FEBFFFF7FEBF38
:103CC000FFF7FEBFFFF7FEBFFFF7FEBFFFF7FEBF28
:103CD000FFF7FEBFFFF7FEBFFFF7FEBFFFF7FEBF18
:103CE000FFF7FEBFFFF7FEBFFFF7FEBFFFF7FEBF08
:103CF000FFF7FEBFFFF7FEBFFFF7FEBFFFF7FEBFF8
:103D0000FFF7FEBFFFF7FEBFFFF7FEBFFFF7FEBFE7
:103D1000FFF7FEBFFFF7FEBFFFF7FEBFFFF7FEBFD7
:103D2000FFF7FEBFFFF7FEBFFFF7FEBFFFF7FEBFC7
:103D3000FFF7FEBFFFF7FEBFFFF7FEBFFFF7FEBFB7
:103D4000FFF7FEBFFFF7FEBFFFF7FEBFFFF7FEBFA7
:103D5000FFF7FEBFFFF7FEBFFFF7FEBFFFF7FEBF97
:103D6000FFF7FEBFFFF7FEBFFFF7FEBFFFF7FEBF87
:103D7000FFF7FEBFFFF7FEBFFFF7FEBFFFF7FEBF77
:103D8000FFF7FEBFFFF7FEBFFFF7FEBFFFF7FEBF67
:103D900005FFFE00060003FD000C010000FFFE0110
:103DA00006000301000001B6000001F9000010FC4C
:053DB000000224F400F4
:0400000508003C258E
:00000001FF
